:020000040800F2
:100000000000022089060008850600081933000850
:100010008506000885060008850600080000000027
:10002000000000000000000000000000850600083D
:100030008506000800000000850600089D320008C3
:100040008506000885060008850600088506000864
:100050008506000885060008850600088506000854
:10006000850600088506000885060008513000084E
:100070005D300008CD1D00086930000875300008AB
:1000800041E300087D250008850600088506000874
:100090008506000885060008850600088506000814
:1000A0008506000885060008850600088506000804
:1000B0006DD7000879D7000885D70008B12500085A
:1000C00085060008BD25000885060008DDCF00086C
:1000D000E9CF000875E10008A1E10008D5E10008BA
:1000E0008506000885060008000000008506000857
:1000F00085060008850600088506000885060008B4
:10010000850600088506000891D70008F5CF00088D
:1001100009E200083DE2000885060008850600089F
:10012000850600088506000819D000084DD0000893
:1001300075E30008850600088506000885060008A6
:1001400000000000000000000000000000000000AF
:1001500085060008850600088506000871E200088B
:10016000C925000885060008AD320008D132000814
:1001700085060008F5320008850600088506000897
:100180008506000885060008A5E20008D9E20008F7
:1001900001D000080DD0000885060008850600087B
:1001A0008506000885060008850600088506000803
:1001B000712D0008850600088506000885060008E0
:1001C0008506000885060008811800088D180008BB
:1001D00085060008991800088506000885060008AD
:1001E00085060008850600088506000885060008C3
:1001F00085060008850600088506000885060008B3
:1002000085060008850600088506000885060008A2
:100210008506000885060008850600088506000892
:100220008506000885060008850600080000000015
:100230008506000885060008000000008506000805
:100240008506000885060008850600088506000862
:100250008506000885060008850600088506000852
:100260008506000885060008850600088506000842
:1002700085060008850600080DE300080000000060
:1002800085060008850600088506000800000000B5
:080290000000000085060008D3
:1002A00010B5054C237833B9044B13B10448AFF3B0
:1002B00000800123237010BD080600240000000008
:1002C000B82E010808B5034B1BB103490348AFF32F
:1002D000008008BD000000000C060024B82E0108B4
:1002E00001F0FF01102A2BDB10F0070F08D010F8E7
:1002F000013B013A8B422DD010F0070F42B3F6D1EB
:10030000F0B441EA012141EA014122F007047FF003
:1003100000070023F0E80256083C85EA010586EA5A
:10032000010685FA47F5A3FA87F586FA47F6A5FA96
:1003300087F68EB9EED1F0BC01F0FF0102F00702A2
:1003400032B110F8013B013A83EA010313B1F8D14D
:100350000020704701387047002D06BF354603382E
:10036000073815F0010F07D1013015F4807F02BF67
:10037000013015F4C03F0130F0BC0138704700BFB8
:1003800053B94AB9002908BF00281CBF4FF0FF31FC
:100390004FF0FF3000F074B9ADF1080C6DE904CEF8
:1003A00000F006F8DDF804E0DDE9022304B0704750
:1003B0002DE9F047089D04468E46002B4DD18A4218
:1003C000944669D9B2FA82F252B101FA02F3C2F14B
:1003D000200120FA01F10CFA02FC41EA030E9440DC
:1003E0004FEA1C48210CBEFBF8F61FFA8CF708FBFD
:1003F00016E341EA034306FB07F199420AD91CEBD5
:10040000030306F1FF3080F01F81994240F21C8106
:10041000023E63445B1AA4B2B3FBF8F008FB10334E
:1004200044EA034400FB07F7A7420AD91CEB040483
:1004300000F1FF3380F00A81A74240F20781644453
:10044000023840EA0640E41B00261DB1D4400023D8
:10045000C5E900433146BDE8F0878B4209D9002D3C
:1004600000F0EF800026C5E9000130463146BDE8C6
:10047000F087B3FA83F6002E4AD18B4202D3824230
:1004800000F2F980841A61EB030301209E46002DDF
:10049000E0D0C5E9004EDDE702B9FFDEB2FA82F234
:1004A000002A40F09280A1EB0C014FEA1C471FFA92
:1004B0008CFE0126200CB1FBF7F307FB131140EA79
:1004C00001410EFB03F0884208D91CEB010103F146
:1004D000FF3802D2884200F2CB804346091AA4B208
:1004E000B1FBF7F007FB101144EA01440EFB00FEDC
:1004F000A64508D91CEB040400F1FF3102D2A64541
:1005000000F2BB800846A4EB0E0440EA03409CE7DF
:10051000C6F12007B34022FA07FC4CEA030C20FA8C
:1005200007F401FA06F31C43F9404FEA1C4900FAAC
:1005300006F3B1FBF9F8200C1FFA8CFE09FB181129
:1005400040EA014108FB0EF0884202FA06F20BD99C
:100550001CEB010108F1FF3A80F08880884240F2EC
:100560008580A8F102086144091AA4B2B1FBF9F030
:1005700009FB101144EA014100FB0EFE8E4508D92B
:100580001CEB010100F1FF346CD28E456AD90238B0
:10059000614440EA0840A0FB0294A1EB0E01A14295
:1005A000C846A64656D353D05DB1B3EB080261EB03
:1005B0000E0101FA07F722FA06F3F1401F43C5E9DD
:1005C000007100263146BDE8F087C2F12003D84013
:1005D0000CFA02FC21FA03F3914001434FEA1C4755
:1005E0001FFA8CFEB3FBF7F007FB10360B0C43EA47
:1005F000064300FB0EF69E4204FA02F408D91CEBF7
:10060000030300F1FF382FD29E422DD902386344F4
:100610009B1B89B2B3FBF7F607FB163341EA034194
:1006200006FB0EF38B4208D91CEB010106F1FF38E3
:1006300016D28B4214D9023E6144C91A46EA0046DA
:1006400038E72E46284605E70646E3E61846F8E66C
:100650004B45A9D2B9EB020864EB0C0E0138A3E7B5
:100660004646EAE7204694E74046D1E7D0467BE796
:10067000023B614432E7304609E76444023842E70E
:10068000704700BFFEE700BF0B480C4A904203D002
:10069000121A0B4910F054FE0A480B4A904203D03C
:1006A000121A002110F05AFE03F08CF810F014FE1C
:1006B00000F068FAFEE700BF0000002408060024EE
:1006C000EC2E01080806002418F20024704700BF31
:1006D000704700BF10B50E4982B0002401230D48B9
:1006E00022460968009401F01DFC0B4922460123B3
:1006F00009680A48009401F015FC094901232246C3
:1007000009680848009401F00DFC02B010BD00BF5C
:10071000D02A01088C060024D42A0108A00600244F
:10072000D82A0108B406002410B5124982B000246A
:100730000122114823460968009401F0F3FB0F4998
:100740002346012209680E48009401F0EBFB0D4995
:100750002346012209680C48009401F0E3FB0B4991
:100760002346012209680A48009401F0DBFB02B02D
:1007700010BD00BFE42A010824060024E82A01086D
:1007800038060024EC2A01084C060024F02A01084F
:100790006006002470B5104982B000240F4E01237A
:1007A000096822463046009401F0BCFB0C4D0D490F
:1007B0002246012328460968009401F0B3FB304625
:1007C00001F096FC084B024628461A6001F090FCA6
:1007D000064B186002B070BDDC2A0108C806002470
:1007E000DC060024E02A0108AC070024B00700243E
:1007F0002DE9F04F0F20A3B000F0C6FA0346DFF852
:100800002CA10222ADF804300DF1640B0199504681
:1008100001F048F8DFF818811020404F00F0B4FADA
:10082000ADF808000299022240463D4E01F03AF828
:10083000112000F0A9FAADF80C0003990222384605
:10084000384D01F02FF8122000F09EFAADF810009C
:10085000049902223046344C01F024F8132000F0B1
:1008600093FAADF81400059902222846DFF8C490E7
:1008700001F018F8142000F087FAADF81800069976
:100880002046022201F00EF8A44607AC0DF1400EFE
:10089000BAE80F000FC4DAF800302380B8E80F0080
:1008A000CDF83A30B8F80030CDF82E00CDF832103F
:1008B000CDF83620ADF83E300FCFAEE80F003B68E4
:1008C000AEF800300FCECDF85E303388CDF8520050
:1008D000CDF85610CDF85A20ADF862300FCDABE808
:1008E0000F002B68ABF80030BCE80F00CDF87600A5
:1008F000BCF80000CDF87A1007A9CDF87E200622BA
:10090000CDF882300423ADF88600484600F0DEFFC3
:10091000484601F0E9F923B0BDE8F08F1C07002438
:10092000700700248407002498070024F40600249C
:10093000080700244807002470B51248124E01F041
:10094000D7FB0446114801F0D3FB33680546A342A8
:1009500013D00F4BAC42186814BF013000F1FF30C8
:10096000186010F027FE10F053FE0146094800F011
:10097000B1FE094B34601D6070BD074B1A6882429E
:10098000F8D170BDC8060024AC070024DC060024A2
:10099000F0060024E4290108B007002410B5002166
:1009A00069486A4C2DED068B01F0B4F901216648C7
:1009B000F0EE40AA01F0AEF902216348B0EE40AA81
:1009C00001F0A8F903216048F0EE409A01F0A2F985
:1009D00004215D48B0EE409A01F09CF905215A4887
:1009E000F0EE408A01F096F9D4ED007A9FED587A46
:1009F000B0EE408A7AEEE77AF0EEE77AF4EEC77A64
:100A0000F1EE10FA49DC534C9FED517AD4ED007AA7
:100A10007AEE677AF0EEE77AF4EEC77AF1EE10FA42
:100A200000F383804C4C9FED4A7AD4ED007A79EE46
:100A3000E77AF0EEE77AF4EEC77AF1EE10FA66DCC8
:100A4000464C9FED437AD4ED007A79EE677AF0EE6A
:100A5000E77AF4EEC77AF1EE10FA4ADC404C9FEDEB
:100A60003C7AD4ED007A78EEE77AF0EEE77AF4EEAD
:100A7000C77AF1EE10FA2EDC3A4C9FED357AD4EDC0
:100A8000007A78EE677AF0EEE77AF4EEC77AF1EE64
:100A900010FA10DCBDEC068B10BDDFED337A334865
:100AA0006AEEA77AFDEEE77A17EE901A00F012FED2
:100AB000C4ED00AAA7E7DFED2C7A2D4868EE277A6F
:100AC000FDEEE77A17EE901A00F004FE84ED008A3E
:100AD000BDEC068B10BDDFED247A264868EEA77AC0
:100AE000FDEEE77A17EE901A00F0F4FDC4ED008AEF
:100AF000C2E7DFED1D7A204869EE277AFDEEE77A3E
:100B000017EE901A00F0E6FD84ED009AA6E7DFEDFF
:100B1000167A1A4869EEA77AFDEEE77A17EE901A70
:100B200000F0D8FDC4ED009A8AE7DFED0F7A144893
:100B30006AEE277AFDEEE77A17EE901A00F0CAFD0A
:100B400084ED00AA6EE700BF480700248006002459
:100B50000AD7233C84060024880600247406002457
:100B6000780600247C06002400007A44F829010855
:100B7000342A0108282A01081C2A0108102A010821
:100B8000042A01082DE9F84300213A4800F0D6F97B
:100B9000384800F0F7F80127FFF79CFDFFF728FE23
:100BA000B946FFF7C1FDB846FFF7F4FD002000F09D
:100BB0009FFD314800F08EFD39462E4800F0FEF8CA
:100BC00023E02E4800F086FD01212A4800F0F6F8C7
:100BD000B14508D0002E3CD0294800F07BFD012112
:100BE000244800F0EBF8A74208D0002C39D0254863
:100BF00000F070FD01211F4800F0E0F82746B146E3
:100C0000A846FFF7CBFEFFF797FE0121194800F039
:100C1000D1F81D4801F06CFA05461C4885F0010525
:100C200001F066FA06461A48EDB201F061FA86F064
:100C3000010680F00100A845F6B2C4B2C8D0002D6C
:100C4000BFD1144800F046FD29460A4800F0B6F826
:100C5000BEE7114800F03EFD3146064800F0AEF810
:100C6000C1E70E4800F036FD2146024800F0A6F824
:100C7000C4E700BF30070024402A0108582A0108B1
:100C8000802A0108A82A01088C060024A006002456
:100C9000B40600246C2A0108942A0108BC2A010821
:100CA00010B529480024294A294904604461046296
:100CB000C46310F0F5FA2748274B4FF44071234ADC
:100CC000C0F89C3040F20F73C0E90014C0F8A030A7
:100CD00000F1B40140F20113C0E92B44C0E929132B
:100CE0001E4910F0DDFA4FF60B731D4A1D491E48D0
:100CF000C2E90034C2E902441C4AC1E90034C1E936
:100D00000244C2E900341A49C2E90244194AC0E95E
:100D10000034C0E90244C1E90034C1E90244164884
:100D20001649C2E90034C2E90244154AC0E9003458
:100D3000C0E90244C1E90034C1E90244C2E9003417
:100D4000C2E9024410BD00BF3007002400000024A7
:100D5000CD060008B40700240080707FD10600088B
:100D6000A00600248C060024B406002424060024D7
:100D7000380600244C06002460060024C80600241F
:100D8000DC060024704700BF202882B009D8084B39
:100D900003EB400213F81030507843EA002002B011
:100DA000704701230C2043EA002002B0704700BFC7
:100DB000F42A0108084602F01FBB00BF253001F0ED
:100DC00089BA00BF10B540F203338EB000244FF64D
:100DD0000B7240F20341ADF8083009A80123ADF8C9
:100DE0001020ADF824202246ADF80C100094029992
:100DF00007940C94CDE90544CDE90A4401F092F83A
:100E000004A8012322460399009401F08BF809A855
:100E100001F06EF910B901200EB010BD04A801F068
:100E200067F9A0420CBF022020460EB010BD00BFE3
:100E30002DE9F04103239AB0012700240646CDE9AD
:100E400014373B4BCDE9104340F20453CDE916472C
:100E5000ADF84830FFF7B6FFB842054625D0022866
:100E600045D040F60132334B0DF12C081894ADF803
:100E70002C200B981997CDF84A3000F0E3F810A910
:100E800006F13C0002F0FCF8302003224FF07E53C4
:100E900041460D930E93CDE90B02F26B06F114005F
:100EA00000F04CFB1AB0BDE8F0811023214A06A9DE
:100EB00006908DF828300DF12C081F4BCDF84A20F4
:100EC00007930294CDE91804CDE9080402A801F0C3
:100ED00081FB0823029A03A94046ADF80C508DF817
:100EE0000E40049505930B9400F0ECF8C7E7002042
:100EF0000121104B0DF12C083A460094CDF84A30F0
:100F00004FF60B730C94ADF82C302346CDE9180145
:100F100040F601314046ADF818100699CDE90D4470
:100F200001F000F82146404601F0EEF8A7E700BFC7
:100F300004020404040604030704010B2DE9F0472E
:100F400004462DED028B82B000294DD0012140F2E4
:100F5000011200230091ADF804208DF80630364AC6
:100F60000127364B04F10409354904F12908626070
:100F700040F20272A36040F60663E16004F1250AC4
:100F8000A4F82520A4F82930278284F8277084F853
:100F90002B7002F0CDFB054602F030FA694606469A
:100FA00050BB4DB304F130008DF8067002F048FBE1
:100FB000072D3CD104F114052046FFF739FF2846E0
:100FC00000F0F8FA2846B0EE408A00F0EFFAD0EDD3
:100FD000007AF8EE677A88EE277A84ED0E7A02B00E
:100FE000BDEC028BBDE8F08740F2011300918DF853
:100FF0000610ADF80430B2E704F1300002F020FB37
:10100000072D11D04946204601F02EFD0EB9002DC6
:10101000D0D1504601F082F8404601F07FF804F14B
:10102000120000F079F9C5E7002EF2D1C2E7494677
:10103000204601F019FDBDE705080509050705066D
:10104000050A060610B584B003460124ADF8040075
:1010500003A8ADF80C30ADF80E4001F05FF8214662
:1010600003A801F037F9204602F0C6F9002103A8D1
:1010700001F030F9204602F0BFF9214603A801F043
:1010800029F904B010BD00BF10B5C2F3002384B02D
:101090000C46017C8DF80D2043EA4402FA24022319
:1010A0008DF80C2003AA009401F02AFB18B101244A
:1010B000204604B010BD04460A2002F09DF92046E7
:1010C00004B010BD034670B543F8042B044684B049
:1010D00007C983E80700A37983B91A210B461E22AA
:1010E000FA2523742046ADF80C20022303AA0095AC
:1010F00001F006FB28B1012004B070BD1B210B4696
:10110000EDE70A2002F078F94FF4B8520095022377
:10111000ADF80C20204603AA217C01F0F1FA00284A
:10112000E9D10A2002F068F941F202720095022327
:10113000ADF80C20204603AA217C01F0E1FA00283A
:10114000D9D10A2002F058F9042200950223ADF803
:101150000C20204603AA217C01F0D2FA0028CAD133
:101160000A2002F049F9062200950223ADF80C206E
:10117000204603AA217C01F0C3FA0028BBD10A2033
:1011800002F03AF941F2082200950223ADF80C2052
:10119000204603AA217C01F0B3FA0028ABD10A2033
:1011A000064602F029F90095022303AA217C204675
:1011B000ADF80C6001F0A4FA00289CD1304602F092
:1011C0001BF9009522790C232046002A8DF80C305B
:1011D00003AA4FF0020314BF622142218DF80D10C3
:1011E000217C01F08DFA002885D1304602F004F907
:1011F0002279D4E902310B43DBB20AB943F0400350
:1012000062790AB143F020030E22FA258DF80D30E1
:101210002046009502238DF80C2003AA217C01F0C2
:101220006FFA00287FF467AF0A2002F0E5F8102279
:1012300000950223ADF80C20204603AA217C01F082
:101240005FFA00287FF457AF0A2002F0D5F8122188
:1012500000950223ADF80C1003AA217C204601F072
:101260004FFA00287FF447AF0A2002F0C5F80122A8
:1012700009212046FFF708FF003818BF01203BE78F
:10128000F0B5102387B0234C01220025012600274A
:1012900002A920460195CDE902234FF48052CDE901
:1012A000046709F02FFB642003F080F802A94FF4D3
:1012B00080522046CDE9046702261027CDE9026757
:1012C00009F020FB0322102302A92046CDE90223C6
:1012D00000230422CDE904234FF4805209F012FBCD
:1012E00040F23223042202A9019310232046CDE9C3
:1012F0000223019A012305924FF48052049309F0CE
:1013000001FB40F60601204609F01CFB284607B009
:10131000F0BD00BF009900241C4B00221C494FF077
:10132000400C30B5054689B00220596007219A600B
:101330001A620124DA620A224FF4006EDC6006921F
:101340002022CDE9000104200821CDE9020103207B
:101350001021CDE9040108206946C3E904024FF4D5
:10136000C072181DC3E906C24FF48052C3E909E2F6
:1013700009F09EFA38B92846FFF782FF003818BFF7
:10138000012009B030BD204609B030BDFC980024D2
:1013900040410052614A0021D0B513688EB00A91D5
:1013A000002B40F0B9805E4B01214FF683700C2476
:1013B00011600221D3F8D4200026032742F4805282
:1013C000C3F8D420D3F8D42002F480520092009ABB
:1013D000D3F8E02042F01002C3F8E020D3F8E02078
:1013E00002F010020192019AD3F8E02042F040028C
:1013F000C3F8E020D3F8E02002F040020292029A03
:10140000D3F8E02042F00802C3F8E020D3F8E0204F
:1014100002F008020392039AD3F8E02042F48072AB
:10142000C3F8E020D3F8E02002F480720492049A1A
:10143000D3F8E02042F08002C3F8E020D3F8E020A7
:1014400002F080020592059AD3F8E02042F02002D3
:10145000C3F8E020D3F8E02002F020020692069ABA
:10146000D3F8E02042F00402C3F8E020D3F8E030E3
:101470000C9403F0040307930323079A0B93CDE91D
:10148000080108A9274804F017FE48F23712022382
:1014900008A925480C94CDE90823CDE90A6704F092
:1014A0000BFE4CF20372022308A920480C94CDE9EC
:1014B0000823CDE90A6704F0FFFD40F2FF62022332
:1014C00008A91B480C94CDE90823CDE90A6704F06C
:1014D000F3FD4FF60C72022308A916480C94CDE9CF
:1014E0000823CDE90A6704F0E7FD4FF63F02022327
:1014F00008A911480C94CDE90823CDE90A6704F046
:10150000DBFD2022022308A90A480C94CDE90A67D2
:10151000CDE9082304F0D0FD0EB0D0BDF89800242A
:10152000004402580010025800180258000C0258DB
:1015300000200258001C02580014025830B5184C04
:10154000154685B0046004F1080EEC460FC98EE81C
:101550000F00D4ED047AF5EEC07A8CE80F00F1EEBE
:1015600010FA1ADDB7EE006A94ED057A27EE277AB5
:10157000C6EE276A84ED0D7AC4ED0C6A6DB1204683
:1015800040F8185F01F074FE064903690020064A1E
:101590002162A262E36005B030BD012005B030BD1C
:1015A000349900240020003000000030006808302A
:1015B000704700BF0068183001F05CBE10B4074BE4
:1015C0004FF07E5130240022032019619C60D860C6
:1015D0005DF8044B5961C3E9062270473499002431
:1015E000704700BFF8B5134F3C687F2C07D98023A4
:1015F000114A42F224411C463B60A2F87E100F4D76
:101600002B68012B0AD90C4E0D4D22463146284637
:1016100000F02CF90028F8D13860F8BD22460649C0
:10162000074800F023F90028F7D12B683860013310
:101630002B60F8BD70990024749900246C990024E3
:10164000F499002430B4154C2168F1B14B1E144DAF
:10165000E81810F801298C4619460A2A01D00D2AEB
:1016600002D14BB1013BF4E70CF102037F2B10D9FF
:101670008023236030BC70470122022323600D20A9
:101680000A236854AB5430BC704701220223044D36
:10169000F4E70CF101026146F0E700BF7099002405
:1016A0007499002410B5094C02460B46084821687D
:1016B0000844C1F1800110F025F823681844206027
:1016C000FFF7C0FFFFF78EFF10BD00BF7099002429
:1016D000749900240FB400B583B004A951F8040B29
:1016E0000191FFF7DFFF03B05DF804EB04B0704732
:1016F00010B5044600210A4800F032F8002C094BCE
:1017000014BF0222002208481A60FFF7E3FF0748CF
:10171000FFF7E0FF0A20BDE8104001F06DBE00BFFA
:10172000F49900246C990024382B0108482B0108F7
:10173000064A0749074808B50FF0B2FD034A0449B5
:101740000548BDE808400FF0ABBD00BF0000002415
:10175000E1150008F4990024F8990024704700BFAF
:10176000012910B506D0022915D051B1BDE81040AD
:1017700006F084BB0A46344834490AF073FBE8B1EA
:10178000FEE7334B0A46334C334934481C600AF0B9
:1017900069FB68B1FEE701222C492B480AF062FB85
:1017A00000B1FEE72E4928480AF07EFBC0B1FEE7F3
:1017B0002B492A480AF078FB60B1FEE72849224805
:1017C0000AF072FB00B1FEE726491F480AF0FAFA58
:1017D00008B3FEE7244921480AF0F4FAA8B1FEE76D
:1017E000204919480AF0EEFA00B1FEE716480AF05F
:1017F00071FB024640B9164B164C174917481C603E
:101800000AF030FB68B1FEE7FEE714480AF062FB1D
:101810000028ABD0FEE70C480AF05CFB0028A5D0FE
:10182000FEE70F490D480AF03FFB00B1FEE70E4905
:101830000A480AF0C7FA00B1FEE708480AF04AFB76
:10184000002893D0FEE700BF989C0024A00000244D
:10185000349F00245D17000884000024FC990024B4
:10186000080100246400002454000024084691B2BA
:1018700008B502F097F8003818BF012008BD00BF76
:10188000014805F0D9BD00BF30CA0024014805F069
:10189000D3BD00BF30CA0024014805F0CDBD00BF54
:1018A00030CA002400B583B04FF0000E4FF0030C97
:1018B0004274ADF80410BDF8043080F810E0A0F8D0
:1018C00002C0038003B05DF804FB00BF2DE9F04FB8
:1018D000DFF81C8300258DB0C04C037008F1400375
:1018E0004260074601920E46202229464046C4F82F
:1018F0006831C4F86481CDE90255CDE90455CDE9DC
:101900000655CDE90855CDE90A550FF027FD2022EF
:10191000294604F5A170C4F83151C4F83551C4F812
:101920003951C4F83D510FF019FD019B84F848521C
:1019300084F830317A68002A6AD02B4604F5987111
:10194000454606F1100A9E46F01856F803B0E21814
:101950000EF1010ED0F80CC0D0F80490D0F8088039
:1019600044F803B0C2F80CC04FF0000CC2F8049069
:10197000C2F80880008A25F802CB10821AF80320EA
:1019800001F8012F002A70D07A684FF0010012335D
:10199000724584F84802D7D84FF4802290489DF8C9
:1019A000043008214FF000084FF00009C4F88431DA
:1019B0000023C4E95B020122C4F8743184F8803149
:1019C000C4E95E2194F84812C4E96489A9B3C4F853
:1019D0009821002284F8813184F888313B78C4E969
:1019E0006722002B38D0012200200121013B84F81E
:1019F000A421C4E96C01082B30D8DFE813F0BD0046
:101A0000C200C700CC00D100D600DB00E100E80036
:101A10009DF804300121C4F87421C4F884314FF4D6
:101A2000802384F880216E4AC4E95B2308230022C6
:101A3000C4E95E130023C4E964230123002284F86F
:101A40008131002384F888310323C4F898313B782E
:101A5000C4E96722002BC6D184F8A431614803F0A1
:101A6000DDF8034638B1FFBEFEE77A6812337245EF
:101A70003FF66AAF90E702A95A48029303F02CFAA6
:101A80008246002876D1042240F2FF710A90CDE907
:101A9000081294F83021002A00F0F3804FF0060875
:101AA0000AEBCA034FEACA0904EB43035B7C072B2A
:101AB00007D8DFE803F0595C5653504D4A0407231A
:101AC00007930FFA8AF6D14406EBC60604EB4909E0
:101AD00004EB46077500384600F020FB99F81030FB
:101AE000042B00F3AA80022B00F3BD8000F0B98024
:101AF00004EB0A03002283F8202114F81630002B8F
:101B000078D0022B00F08A80012B40F0B2807B78E5
:101B1000012B00F0B080002B334B18BF002305A928
:101B20003048CDE9053802F0A5FC002840F0AC8033
:101B30000AF1010A94F830315FFA8AFA534540F20B
:101B4000A0802A4B53F82A80AAE706230793B8E718
:101B500005230793B5E704230793B2E7032307930D
:101B6000AFE702230793ACE700230793A9E701231C
:101B70000793A6E7FFBEFEE703224023C4E96A23DA
:101B80006CE707226023C4E96A2367E70F228023FA
:101B9000C4E96A2362E71F22A023C4E96A235DE740
:101BA0003F22C023C4E96A2358E77F22E023C4E927
:101BB0006A2353E7FF224FF48073C4E96A234DE799
:101BC00040F2FF124FF49073C4E96A2346E740F2F3
:101BD000FF324FF4A073C4E96A233FE7409F00241B
:101BE00000200240ACA000240002B025582B0108C0
:101BF000004000307B78062B37D0072B3DD0022BDE
:101C00004AD0032B4AD0002B4CD0012B48D0042BB8
:101C10004AD0052B254B18BF002380E77B78042B87
:101C200025D0052B2BD08BB3012B31D0022B31D0FB
:101C3000032B1F4B18BF002371E70323043504EB6C
:101C40000A0B4FF0000925448BF82031284609F192
:101C5000010900F063FA9BF8203104354B45F5DCAF
:101C60004BE70123EAE70223E8E7124B57E7124B61
:101C700055E7002353E7114B51E7114B4FE7114B49
:101C80004DE70DB0BDE8F08FFFBEFEE70E4B46E717
:101C90000E4B44E70E4B42E70E4B40E70E4B3EE740
:101CA0000E4B3CE70E4B3AE70E4B38E70000B84FBF
:101CB000002090360800900C1000C0102000F01496
:101CC0008000501D000180210004002A0008302EF1
:101CD000001060320040C03A0080F03E00005247E1
:101CE000000021430000844B38B5094C40F2FF72DC
:101CF0004FF0011104F5B675284603F09BF894F8EF
:101D00003021D4F864112846BDE8384002F006BE00
:101D1000409F0024064B0F29D3F8643198BF03EB92
:101D200041031B8800EE103ABBEEC80A704700BFA3
:101D3000409F0024214B02689A4200D07047204AFD
:101D400000232048D2F8D81030B51F4C41F02001B4
:101D500083B0C4F8D001092004F5E875C4E975031F
:101D60004FF48060C2F8D810D2F8D8204FF4006148
:101D7000C4E9773094F8480202F02002C4F8E41174
:101D80004FF40051984201922846C4F8E811C4E982
:101D90007C33019B14BF00234FF48073C4F8EC31F3
:101DA00003F0C0FA08B1FFBEFEE704F5B673C4F84D
:101DB000B851C4F8083203B030BD00BF0020024063
:101DC0000044025840000240409F0024014803F0B4
:101DD00021BE00BF10A1002402682DE9F84F4B4B33
:101DE0009A4201D0BDE8F88F494D95F84832002B52
:101DF000F8D095F83031002B77D0002405F10C098C
:101E000005F5A17605F59877A04613E003F00101EA
:101E100017F811BCA9F1080000F05CFABBF1010F42
:101E200025D895F83031013409F112090236A2B2F1
:101E300093422BD917F8012F002AF4D0D5F864313A
:101E40000021327833F81400D5F8683103EB04131D
:101E500023F81200338801339BB233805FFA83FA90
:101E60003A789A42D2D88A46A6F80080D0E7CAF3D8
:101E70004001A9F1040000F02DFABBF1020FCAF3F2
:101E80008001CED0484600F025FACAE7002395F835
:101E90004802204909229842C5F8D8314FF48060A1
:101EA000C5F8D011C5F8D4214FF400614FF40052A9
:101EB000C5F8DC3108BF4FF48073C5F8E821C5E9E7
:101EC000780100221448C5E97B32C5F8F42103F0FB
:101ED00029FA08B1FFBEFEE795F83021D5F8641164
:101EE0000E48BDE8F84F02F019BD0A4909224FF427
:101EF0008060C5F8D831C5E974124FF400614FF421
:101F00000052C5E97730C5E97912DAE700200240CE
:101F1000409F00244000024010A10024ACA00024F7
:101F2000704700BF10B592B0ADF804100180C9B27F
:101F3000149C0B29C460C0E901233FD090F801C074
:101F4000BCF10F0F3AD8022A3FD0032A02D0012A4F
:101F500000D000220E92012B02D0022B18BF0023CA
:101F6000022C0F932CD0032C2AD0012C28D0002334
:101F70000A29109327D85C4A02EB812202610A29C0
:101F800014D8DFE801F0A39587796B5D4F413325C5
:101F90000600564BD3F8E01041F48061C3F8E0101E
:101FA000D3F8E03003F480630C930C9B01230DA95C
:101FB000104603FA0CF30D9304F07EF812B010BD36
:101FC0000A291094D7D90022D8E711220E92C2E72D
:101FD000464BD3F8E01041F40071C3F8E010D3F899
:101FE000E03003F400730B930B9BDFE73F4BD3F818
:101FF000E01041F48071C3F8E010D3F8E03003F44E
:1020000080730A930A9BD1E7384BD3F8E01041F074
:102010008001C3F8E010D3F8E03003F080030993A7
:10202000099BC3E7314BD3F8E01041F04001C3F8FE
:10203000E010D3F8E03003F040030893089BB5E7C5
:102040002A4BD3F8E01041F02001C3F8E010D3F898
:10205000E03003F020030793079BA7E7234BD3F857
:10206000E01041F01001C3F8E010D3F8E03003F0C5
:1020700010030693069B99E71C4BD3F8E01041F040
:102080000801C3F8E010D3F8E03003F0080305932B
:10209000059B8BE7154BD3F8E01041F00401C3F822
:1020A000E010D3F8E03003F004030493049B7DE7D1
:1020B0000E4BD3F8E01041F00201C3F8E010D3F862
:1020C000E03003F002030393039B6FE7074BD3F861
:1020D000E01041F00101C3F8E010D3F8E03003F064
:1020E00001030293029B61E700000258004402587A
:1020F00008B5012143780069994089B204F0E4F9F8
:10210000003818BF012008BD01230A464178006944
:1021100003FA01F189B204F0DDB900BF8378022B24
:1021200030B504468FB037D0032B33D0012B31D0DC
:1021300000230A93E378012B2AD0022B28D0002316
:102140000B93002320460C9302F00EF80546204620
:1021500002F012F823780990082B13D8DFE803F077
:102160001F3245586B7E91A40500594BD3F8E020EF
:1021700042F48072C3F8E020D3F8E03003F48073B7
:102180000893089B09A9284603F096FF0FB030BDBD
:102190000B93D6E70A93CDE711230A93CAE74C4B7A
:1021A00009A92846D3F8E02042F00102C3F8E02054
:1021B000D3F8E03003F001030093009B03F07CFFB1
:1021C0000FB030BD424B09A92846D3F8E02042F0B9
:1021D0000202C3F8E020D3F8E03003F002030193D9
:1021E000019B03F069FF0FB030BD394B09A92846A8
:1021F000D3F8E02042F00402C3F8E020D3F8E03046
:1022000003F004030293029B03F056FF0FB030BDAE
:102210002F4B09A92846D3F8E02042F00802C3F862
:10222000E020D3F8E03003F008030393039B03F0AE
:1022300043FF0FB030BD264B09A92846D3F8E02054
:1022400042F01002C3F8E020D3F8E03003F01003AE
:102250000493049B03F030FF0FB030BD1C4B09A961
:102260002846D3F8E02042F02002C3F8E020D3F85B
:10227000E03003F020030593059B03F01DFF0FB032
:1022800030BD134B09A92846D3F8E02042F04002A4
:10229000C3F8E020D3F8E03003F040030693069B38
:1022A00003F00AFF0FB030BD094B09A92846D3F847
:1022B000E02042F08002C3F8E020D3F8E03003F0E1
:1022C00080030793079B03F0F7FE0FB030BD00BFFC
:1022D0000044025870B506460D4601F045FF04461D
:1022E000304601F049FF2A1E0146204618BF012250
:1022F000BDE8704004F0EEB80023122270B586B03D
:10230000CDE9022304930368032B01D8042305932A
:10231000061D841D304601F027FF0546304601F0BA
:102320002BFF034601A92846019303F0C5FE204672
:1023300001F01AFF034620461C4601F01DFF01A9CB
:1023400003462046019303F0B7FE06B070BD00BF00
:10235000634A0368934210B58CB028D0614A934217
:1023600058D0614A934200F09480604A934201D071
:102370000CB010BD5E4C5F48D4F8E03043F002036F
:10238000C4F8E030D4F8E03003F002030A930A9B6B
:10239000FFF7B2FFD4F8F43043F08003C4F8F43010
:1023A000D4F8F43003F080030B930B9BE0E7504C20
:1023B0005148D4F8E03043F00203C4F8E030D4F8D8
:1023C000E03003F002030193019BFFF795FFD4F87F
:1023D000E83000221F2043F400131146C4F8E8300F
:1023E000D4F8E83003F400130293029BD4F8D830F9
:1023F00043F00103C4F8D830D4F8D83003F0010317
:102400000393039B02F0DCFD1F200CB0BDE81040DD
:1024100002F014BE364C3948D4F8E03043F0800363
:10242000C4F8E030D4F8E03003F080030493049B58
:10243000D4F8E03043F00203C4F8E030D4F8E030E0
:1024400003F002030593059BFFF756FFD4F8E8302D
:102450000022212043F480031146C4F8E830D4F868
:10246000E83003F480030693069BD4F8D83043F099
:102470000103C4F8D830D4F8D83003F0010307932F
:10248000079B02F09DFD21200CB0BDE8104002F03A
:10249000D5BD1B48FFF730FF154B00224820D3F86D
:1024A000E840114644F40004C3F8E840D3F8E8409B
:1024B00004F400040894089CD3F8D84044F00104C4
:1024C000C3F8D840D3F8D83003F001030993099B2F
:1024D00002F076FD48200CB0BDE8104002F0AEBD21
:1024E0000054004000580040005C0040001C0058B0
:1024F0000044025818A4002490A1002468A20024DB
:1025000040A300242DE9F0431A4B87B000254FF07B
:1025100010099E46EC46184BFF22E04667461A70AB
:102520000EF118060EF13004CDE90055CDE9025543
:10253000ADF80090BCE80F00CDE90455AEE80F00FF
:102540009CE803000095ADF800908EE80300B8E821
:102550000F000FC69CE803000095ADF8009086E8D8
:1025600003000FCF0FC49CE8030084E8030007B00A
:10257000BDE8F083040000248CA1002410B5EFF323
:10258000108472B6084B1A78120602D504B962B6E6
:1025900010BD1B78D82205485BB202FB0300143043
:1025A00003F038FAF2E700BF8CA1002490A10024C8
:1025B000014804F027BE00BF1CA20024014804F01B
:1025C00021BE00BFF4A20024014804F01BBE00BFDE
:1025D000CCA300242DE9F0430F68D8243F4D85B0EB
:1025E00007FB04F4032F05EB0403036040DCCB6816
:1025F0000E46012B3CD84DD04FF0D808B646DFF838
:10260000FC9008FB0758BEE80F00C446ACE80F007A
:10261000DEF800300DF1100ECCF80030D8F808C00C
:1026200099E80F000EE90F000EEB8703BCF1010FD4
:1026300053F8103CC8F88C3031D0BCF1020F42D0B6
:10264000BCF1000F35D0317C8C34D823002201201E
:102650002C4403FB07534900C3E92602C3F8941036
:102660002046C3E92822C3E92A2204F0BDFB18B1A1
:10267000012005B0BDE8F0830146204604F0CEFD00
:102680000028F5D10146204604F0F2FD003818BFBD
:102690000120EEE70B7C103B672BADD9E8E701F09A
:1026A00045F80F4B98420CBF0E4B0F4BC8F89030BB
:1026B000C9E701F03BF80A4B98420CBF0B4B0C4B9F
:1026C000C8F89030BFE701F031F8054B98420CBFD5
:1026D000084B094BC8F89030B5E700BF90A1002423
:1026E000000E27072D0FB0303211D0205F439060CD
:1026F0008A62E030200BA0101A098010B02901086E
:102700002DE9F041D0F8008082B00D4617461E46F4
:1027100008F18C04204604F07DFD2028FAD1D8F879
:102720000C3073B96D002046089C33463A46A9B276
:10273000009404F0AFFB003818BF012002B0BDE8E0
:10274000F081089B32463946204604F077FCF2E7D8
:10275000044B10221A7483F8E82083F8C02183F810
:102760009822704790A1002430B5002395B04FF413
:102770008071062204460B9306921393CDE90C1345
:10278000CDE90E33CDE9113300F0D2FF07282BD06D
:1027900004F1100541F2883206A9284605F0BAFC7A
:1027A00028B10123184684F85C3015B030BD0222F0
:1027B000022306A92846CDE9002310220123CDE9F2
:1027C000022300224FF48003CDE9042305224FF0B9
:1027D000807306926A460F9341F2883305F006FE35
:1027E0000028DED115B030BD0323012084F85C3011
:1027F00015B030BD0000000070B50023A4B04FF04C
:1028000080724FF480750446ADF806300D93CDE923
:1028100010320122CDE90E53CDE91223CDE9143354
:10282000002943D0F02300F1100508AEADF80630C2
:10283000C02341F2883231462846089305F06AFCED
:1028400028B10123184684F85C3024B070BD41F2F1
:1028500088320DF10601284605F0C6FC0346002823
:10286000EFD105224FF480711E93284616924FF047
:1028700080721B9321931F9202AA9FED1F7BCDE9CB
:102880001C13CDE922338DED027B9FED1D7B41F2C0
:10289000883316A98DED047B9FED1B7B8DED067BA8
:1028A00005F0A4FD0028CCD124B070BD00F11005C6
:1028B00008AE612341F2883231462846089305F07C
:1028C00029FC0028BDD141F288320DF106012846CD
:1028D00005F008FD0028B4D1BDF80630204623F0ED
:1028E000780343F04003ADF80630FFF73DFF0028C2
:1028F0009ED0A6E7AFF300800000000001000000BA
:102900001000000001000000000000000000400076
:102910002DE9F04F00234FF4807501264FF08078A9
:1029200004462DED028BABB08DF807301393219345
:10293000299314950E96CDF85C80CDE91533CDE939
:102940001863CDE91A33CDE92253CDE92433CDE91B
:10295000273306231C9300F0EBFE072808D004F170
:10296000100741F288321CA9384605F0D3FB40B16C
:102970000123184684F85C302BB0BDEC028BBDE817
:10298000F08F4FF0020A4FF0020B4FF0050941F2B1
:10299000883308AA1CA93846CDF89480CDF87090E9
:1029A0009FED2D8BCDE908AB4FF0000A4FF4800B63
:1029B0008DED0A8BCDE90CAB05F018FD0028D7D1C1
:1029C00041F2883238460EA905F0A4FB0028CFD189
:1029D000402341F288320DF1070138468DF8073067
:1029E00005F002FC0028C3D141F288330EA902AAE7
:1029F0003846CDF83890CDF85C809FED197B8DED91
:102A0000048BCDE906AB8DED027B05F0EFFC0346B0
:102A10000028ADD1CDF870904FF00109CDF8948029
:102A20004FF00008219308AA29931CA93846229543
:102A3000CDE92333CDE9273341F288338DED0A8B7D
:102A4000CDE90CABCDE9088905F0D0FC002893D086
:102A5000304684F85C608FE7100000000100000041
:102A600040000000400000002DE9F043624CA3B09C
:102A70000D46046000F05CFE072800F0A98028687D
:102A800023466968AA6807C31E46AB8926F8043B3B
:102A90003046257B677B05F01FFBE0B9574B012DC6
:102AA0004FF00108E061236114BF4FF480134FF42D
:102AB0000003C4E9058893FAA3F3B3FA83F34FF450
:102AC0008079013BC4F82490C4E90B0030462362AE
:102AD00005F096FA38B10122134684F85C201846B6
:102AE00023B0BDE8F08366230B90139041F2883247
:102AF00006A90693CDE90C90CDE90E00CDE91100B1
:102B0000304605F007FB0028E5D1992341F28832D1
:102B100006A93046069305F0FDFA0028DBD105230F
:102B20001C9019906A4614934FF08073219014A959
:102B30001D9341F288339FED2A7BCDE91A90CDE9B0
:102B40001F008DED007B9FED287B30468DED027BD5
:102B50009FED277B8DED047B05F048FC0028BAD162
:102B600029462046FFF748FE0028B4D12046FFF74B
:102B7000CFFE03460028AED1002FB0D118933046C7
:102B80000027002606AA14A9CDF86890CDE91F33C6
:102B9000EB2314934FF440631B934FF400531793AC
:102BA0004FF440431C93A0231693062319934FF030
:102BB000805321934FF04073CDE906671D9305F0D4
:102BC0008DFC034600288AD0434684F85C8086E763
:102BD00001230322184684F85C2023B0BDE8F0836B
:102BE00000000000010000001000000001000000D3
:102BF0000000000000004000F0A40024005000523B
:102C00002DE9F04F8FB0414B0024026800AF9A428B
:102C10007C63C7E90944C7E90B4403D03C37BD4690
:102C2000BDE8F08F3A4B40F609213A48EB46D3F81D
:102C3000D42007F11C0607F1220A4FF0020942F4E2
:102C400080424FF00308C3F8D420D3F8D42002F414
:102C50008042BA60BA68D3F8E02042F04002C3F87C
:102C6000E020D3F8E02002F04002FA60FA68D3F8DE
:102C7000E02042F02002C3F8E020D3F8E02002F088
:102C800020023A613A69D3F8E02042F01002C3F81A
:102C9000E020D3F8E02002F010027A617A69D3F8DC
:102CA000E02042F00202C3F8E020D3F8E030F861FF
:102CB00003F002033984BB61174B7B60BB697B68FF
:102CC00053F8040F7B6001F04FFA7B6805461868E3
:102CD00001F052FA16F8013B786207F12401284608
:102CE000C7F830807B63C7E90A9403F0E5F95645DD
:102CF000E5D100225C20114602F062F95C2002F06E
:102D00009DF93C37DD46BD46BDE8F08F00500052CE
:102D1000004402580A0A09094CA50024114B026814
:102D20009A4200D07047104A70B5D2F8D4300F4C98
:102D300023F4804304F11806C2F8D43054F8040F89
:102D400001F012FA0546206801F016FA01462846FD
:102D500003F0F2FAB442F1D15C20BDE8704002F019
:102D60007BB900BF00500052004402584CA500241B
:102D7000014805F03FBC00BF00A50024084B1A1D08
:102D8000981D03F1080110B49C1C9A6603F10A0215
:102D9000C3E91834C3E91B015DF8044B5A67704757
:102DA000F0A4002438B5036871B9026A00F128055F
:102DB00000F5AC74012A0CBF002140218BBB1D4BD8
:102DC0005722C0F858310DE0426A00F1C00500F505
:102DD000E874012A0CBF00214021EBB1164B5A22A6
:102DE000C0F8D03100232046C4E901214FF48052BD
:102DF0004FF48061636262614FF48042C4E9033141
:102E00004FF48073C4E906234FF40033236202F0C9
:102E100089FA58B1FFBEFEE7084B5822C0F8D031FE
:102E2000E0E7074B5922C0F85831DBE7C5E92044F9
:102E3000A56338BD10000240700002402800024027
:102E4000580002402DE9F043821D05468BB0031D5A
:102E500005F10A010830CDE9052305F10C02AB6943
:102E6000CDE907010992002B3DD0EB69B3FA83F855
:102E70004FEA58180123022205AE0AAF4FF00609A7
:102E80000393CDE9012356F8044B2B792278934222
:102E900016D02B68F3B1012B02D1F2B10A230493AF
:102EA000204601F069F903462046009301F05CF9E1
:102EB000694603F001F9BE42E5D10BB0BDE8F083ED
:102EC000697963789942E4D1B8F1000FF3D02B68A7
:102ED000002BE0D1CDF81090E2E76378022B14BF0D
:102EE0000A230823DBE74FF00108C3E7534A0368CE
:102EF000934230B505468BB055D02032934252D024
:102F00004F4A934204D02032934201D00BB030BDDF
:102F10004C4C4D48D4F8E03043F00103C4F8E030A5
:102F2000D4F8E03003F001030593059BD4F8E030BA
:102F300043F00803C4F8E030D4F8E03003F00803AD
:102F40000693069BD4F8E03043F04003C4F8E03029
:102F5000D4F8E03003F040030793079BD4F8F03037
:102F600043F40003C4F8F030D4F8F03003F4000365
:102F70000893089BFFF766FFD4F8D830296843F020
:102F800001032F4A3048C4F8D830891AD4F8D83011
:102F900018BF012103F001030993099B0BB0BDE8A1
:102FA0003040FFF7FFBE274C2848D4F8E03043F00C
:102FB0000103C4F8E030D4F8E03003F001030093DB
:102FC000009BD4F8E03043F01003C4F8E030D4F8AC
:102FD000E03003F010030193019BD4F8E03043F09C
:102FE0004003C4F8E030D4F8E03003F0400302932B
:102FF000029BD4F8F03043F48003C4F8F030D4F8E6
:10300000F03003F480030393039BFFF71BFFD4F816
:10301000D830296843F00103084A0C48C4F8D83076
:10302000891AD4F8D83018BF012103F001030493A2
:10303000049B0BB0BDE83040FFF7B4BE045801401C
:10304000045C014000440258C4A7002468A5002481
:10305000014802F0DFBC00BFC0A60024014802F016
:10306000D9BC00BF38A70024014802F0D3BC00BF80
:103070001CA90024014802F0CDBC00BF94A9002483
:103080002DE9F04F0C684FF41776754F87B004FBAD
:1030900006F6012C07EB060AC0F800A000F3A0809A
:1030A0000D468E464FF00008D44669A3D3E90023AD
:1030B00069A1D1E90001CDE9022306ABCAF850822B
:1030C00003EB8403CDE9040153F810BC53F8083C2A
:1030D000CAE992880193BEE80F00ACE80F00BEE891
:1030E0000F00ACE80F00019B9EE80300CAF828B06F
:1030F000CAF8C0308CE803002B69042B0CD8DFE839
:1031000003F0737D879103004FF41773554A03FB57
:1031100004739A64C3F8E020AA692B6A002A43D09A
:10312000002B4FF4177308BF022203FB047318BF70
:103130000322DA6201221A63EA696B6A002A40D12B
:10314000191E4FF4177318BF012103FB0473C3E961
:1031500031126B69022B05D8434A12F80380434AA7
:1031600052F823904FF4177306F12800424649465F
:1031700003FB04740023384463646363E365C4F8A9
:10318000DC30C4F8CC30C4F8F430C4E90F33C4E9FF
:103190001533C4E93533C4E93B33022307F0CCFAD5
:1031A000002849D0FFBEFEE7191E4FF4177318BF61
:1031B000012103FB0473C3E90B12EA696B6A002A5D
:1031C000BED0002B4FF4177308BF022203FB047319
:1031D00018BF0322C3F8C4200122C3F8C820B8E7EF
:1031E000012007B0BDE8F08F4FF417734FF4FA5287
:1031F00003FB04739A64C3F8E0208DE74FF4177360
:103200004FF47A5203FB04739A64C3F8E02083E717
:103210004FF417734FF4FA4203FB04739A64C3F834
:10322000E02079E74FF417734BF6803203FB047309
:103230009A64C3F8E0206FE706F1C000022342461B
:103240004946384407F078FA0028CAD0FFBEFEE7A6
:1032500004580140045C014024580140245C0140B2
:1032600068A5002400770100982B01089C2B010819
:103270000068704703681B69042B05D8044A02EBF9
:10328000830393ED000A70479FED020A704700BF69
:10329000A82B010800803B47704700BF08B501F02C
:1032A00073F8BDE8084001F053BF00BF064808B5F9
:1032B00003680BB103F012F9044803681BB1BDE8C1
:1032C000084004F0B9B808BD40D4002438CE00242A
:1032D000064808B503680BB103F000F90448036819
:1032E0001BB1BDE8084004F0A7B808BD40D40024D5
:1032F00038CE0024064808B503680BB103F0EEF899
:10330000044803681BB1BDE8084004F095B808BD47
:1033100040D4002438CE0024364BDA6A520062D5FD
:103320009A6A9A6A9A6A9B6A180600D500BE314B5F
:103330009B6A990600D500BE2E4B9B6ADA0600D523
:1033400000BE2C4B9B6A1B0700D500BE294B9B6A15
:10335000980700D500BE274B9B6AD90700D500BE51
:10336000244B9B6A1A0400D500BE224B9B6A9B0427
:1033700000D500BE1F4B9B6AD80400D500BE1D4B74
:103380009B6A190500D500BE1A4B9B6A5A0500D5E9
:1033900000BE184B9B6A9B0500D500BE154B9B6A6F
:1033A000D80500D500BE134B9B6A990100D500BE1D
:1033B000104B9B6ADA0100D500BE0E4B9B6A1B03C3
:1033C00000D500BE0B4B9B6A580300D500BE094BCD
:1033D0009B6A990300D500BE064B9B6ADA0306D4AC
:1033E00000BE00BEFEE7DB6A9B07FAD5F8E700BE29
:1033F000F6E700BF00ED00E000F0D8BF0A4B9B6885
:1034000003F17843B3F5003F0BD3084B986848B1FC
:103410009868012806D09868022803D09B6803208A
:1034200070470120704700BF00ED00E000008038C9
:103430002DE9F041CEB004464C2200210AA80DF03F
:103440008DFF2022002102A80DF088FFBC22002160
:103450001EA80DF083FF022004F0EAFC2368012B74
:103460004FF0000354D0534A02250193C820D16A7B
:10347000514B21F00101D162D26A02F001020192A6
:103480009A6942F440429A619B6903F44043019374
:10349000019B494A93699B04FCD5484902240022B8
:1034A00001268B6A04274FF0080823F00303234307
:1034B0008B62052316900AA818934FF48033109658
:1034C000179419941597CDF86880CDE91B22212215
:1034D000CDE91344CDE90A2305F094F900B1FEE7E4
:1034E0003F220323294602A8CDE902230022082314
:1034F000CDE9042340224023CDE9062340234FF4A5
:103500008062CDE9082305F0ABFC0346B8B1FEE7C5
:10351000294A04250093F0209169264B41F440414B
:103520009161926902F440420092DA6A42F001022B
:10353000DA62DB6A03F001030093009BA9E7202213
:103540004FF4805125934FF440152B9280222D93F8
:103550001EA83093269135914FF4807124923492B5
:103560000C223394439140F2271120921022CDF87F
:1035700084802A971F96CDE92E34CDE93B334FF452
:103580008033CDE922463193002446930623CDE9CA
:103590003E4527934FF48063094C2C931E94CDE94C
:1035A000281205F0B9FE00B1FEE704F067FC4EB04A
:1035B000BDE8F08100040058004802580044025859
:1035C0000F130F0370B584B0012401F06FFD4FF4A9
:1035D00080764FF04052194B68460025ADF8004008
:1035E0000396CDE9012301F07FFD19224FF04043FE
:1035F00068468DF8082001938DF80F40ADF80D60F6
:103600008DF801408DF80A5001F06EFD02230B2267
:1036100068468DF80F508DF801304FF062538DF8E9
:1036200008200193ADF80D408DF80A4001F05CFDD3
:10363000042001F049FD04B070BD00BF0E0001037D
:1036400030B50D46044685B0D1E9000184E8030099
:1036500000F06AFEAB79A3B30BF00CF8FEF752FF53
:1036600009F07CFC0AF008FD2B798BBB6B799BB1D0
:10367000BFF34F8FBFF36F8F2A4B0022C3F8502246
:10368000BFF34F8FBFF36F8F5A6942F400325A6114
:10369000BFF34F8FBFF36F8F4FF0FF320023002433
:1036A00000256946204802928DF80C30CDE900458E
:1036B0000AF074F81C480AF0D9F809F07FF805B050
:1036C00030BD2046FFF7B4FE2046FFF77BFFC3E77F
:1036D000144C0023C4F88430BFF34F8FD4F880100B
:1036E00043F6E07EC1F34E3CC1F3C9014FEA4C1CE6
:1036F0000CEA0E000B4640EA8372013BC4F86022DC
:103700005A1CF8D1ACF1200C1CF1200FF0D1BFF302
:103710004F8F636943F480336361BFF34F8FBFF30F
:103720006F8FA3E700ED00E020AA002405F0C8BCDD
:103730001C4B9B6803F17842B2F5003F25D3B3F5EB
:10374000803F20D303F16042B2F5003F1FD303F165
:103750005C42B2F5002F1CD303F17042B2F5902FFA
:1037600019D303F14842B2F5803F16D303F18042EA
:10377000B2F1806F13D303F1E043B3F5000F2CBF18
:103780000820072070470120704700207047022062
:1037900070470320704704207047052070470620BB
:1037A000704700BF00ED00E003480023034A0449CE
:1037B00003600DF075BD00BF20AA002400000024A6
:1037C0009932000810B4204C0022204B83B0D4F86A
:1037D00088101F4841F47001C4F8881019681D4C06
:1037E00041F0010119601A61196808401A4918600E
:1037F0009A61DA611A629A62DA621A635A639A63A8
:10380000DA631A645A64186820F4802018601A6613
:10381000D3F8DC2042F06042C3F8DC20D3F8DC307F
:103820000193019B23681940B1F1005F03D20B4B58
:103830000122C3F80821044B4FF000629A6003B0E4
:103840005DF8044B704700BF00ED00E000440258F3
:103850007FEDF6EA0010005C0000FFFF00800051E1
:10386000704700BF0020704770B50446074E0D46F4
:103870003046214608F0B8FA304608F0D7FA044B33
:10388000204629461B689847002070BDFC990024FB
:1038900024CA002470B50446074E0D463046214622
:1038A00008F0A2FA304608F0C1FA044B2046294637
:1038B0001B689847002070BD989C002428CA0024EB
:1038C00000220949094808B508F084FA0849074860
:1038D00008F08AFA074B1A680AB1002008BD064AA8
:1038E00000201A6008BD00BF24BA0024FC990024FF
:1038F00024AA002424CA00246138000800220949AF
:10390000094808B508F066FA0849074808F06CFA53
:10391000074B1A680AB1002008BD064A00201A6049
:1039200008BD00BF24C20024989C002424B20024B7
:1039300028CA00246138000820280AD0212806D18E
:10394000094B18689A889B7908608A808B710020DF
:103950007047054B0868B1F804C08A7918600020E8
:10396000A3F804C09A7170477400002420280AD07C
:10397000212806D1094B18689A889B7908608A80AB
:103980008B7100207047054B0868B1F804C08A7934
:1039900018600020A3F804C09A7170477C000024CE
:1039A0000020704710B5094CD4F89032D3F8143287
:1039B0000BB1012010BD0A460146204608F00AFA64
:1039C0002046BDE8104008F017BA00BFFC9900245B
:1039D0004B4A036830B593428BB04FF00004CDE9F9
:1039E0000444CDE90644089404D0464A934249D0A1
:1039F0000BB030BD444D4FF4C0524448D5F8E030D0
:103A000043F00103C5F8E030D5F8E03003F00103DE
:103A100000930223009904A9CDE904230A23089303
:103A200002F04AFB4FF40072002304A937480694C1
:103A3000CDE9042302F040FBD5F8D83022462146D8
:103A400043F000636220C5F8D830D5F8D83003F0D1
:103A500000630193019B01F0B3FA622001F0EEFADA
:103A600022462146632001F0ABFA632001F0E6FA1A
:103A700022462146652001F0A3FA652001F0DEFA16
:103A80000BB030BD204D4FF4404204A9D5F8E030D2
:103A900043F00203C5F8E030D5F8E03003F002034C
:103AA0000293022302981A48CDE904230C230893B9
:103AB00002F002FBD5F8D830224621464A2043F0D6
:103AC0000073C5F8D830D5F8D83003F000730393ED
:103AD000039B01F075FA4A2001F0B0FA2246214614
:103AE0004B2001F06DFA4B2001F0A8FA2246214646
:103AF0004D2001F065FA4D2001F0A0FA0BB030BD69
:103B00000000084000000440004402580000025831
:103B10000004025800F57171D0F8040408F0F2B9FD
:103B2000C1EBC10300EB8303D0F80404D3F80822EF
:103B300008F016BAC1EBC10300EB8303D0F804040C
:103B40009A6C08F04BBA00BFD0F8040408F0EABA47
:103B5000C16810B5044619B1022900D0FEE7012161
:103B6000D4F8040408F0C8FAD4F80404BDE81040FE
:103B700008F09ABA10B50446D0F8040408F0C0FA68
:103B80002268D2F8003E43F00103C2F8003E236AE7
:103B900023B1034A136943F00603136110BD00BF4C
:103BA00000ED00E0D0F8040408F0B4BAD0F8040442
:103BB00008F0C8BAD0F8040408F0C2BAD0F8040477
:103BC00008F0C2BAD0F8040408F0C0BA70B506789C
:103BD00004461EB1012E30D0002070BD304D0923A7
:103BE000304AC5F80404C0F8985228462E612E6366
:103BF000C5E9002302230222EB600023C5E9062366
:103C000000220023C5E9082301220123C5E90A2374
:103C100003F05AFB00B1FEE78021284604F0E8F8E3
:103C200031464022284604F0B9F880220121284676
:103C300004F0B4F82678012ECED11B4D09221B4B7F
:103C400000216A6002222B600223C5F80444284642
:103C5000EB600023C4F898522961C5E906230022CD
:103C60000023C5E90823C5E90C2301220023C5E987
:103C70000A2303F029FB044600B1FEE74FF400716C
:103C8000284604F0B5F821468022284604F086F83C
:103C90004FF4BA723146284604F080F89CE700BF22
:103CA00030CA00240000084038CE00240000044040
:103CB000D0F8980208B503F09DFB032802D8024B08
:103CC000185C08BD022008BDCC2B01089446D0F832
:103CD00098021A4608B5634603F012FF032802D87B
:103CE000024B185C08BD022008BD00BFCC2B0108A8
:103CF000D0F8980208B503F041FF032802D8024B20
:103D0000185C08BD022008BDCC2B0108D0F8980231
:103D100008B503F0C3FF032802D8024B185C08BDA6
:103D2000022008BDCC2B0108D0F8980208B503F09A
:103D3000F9FF032802D8024B185C08BD022008BD19
:103D4000CC2B01080A06D0F8983206D4C1EBC10189
:103D500003EB810191F8FE01704701F07F01C1EB97
:103D6000C10103EB810191F83E007047D0F8980241
:103D700008B503F0AFFE032802D8024B185C08BD5B
:103D8000022008BDCC2B0108D0F8980208B503F03A
:103D90005DFF032802D8024B185C08BD022008BD55
:103DA000CC2B0108D0F8980208B503F01DFF0328BA
:103DB00002D8024B185C08BD022008BDCC2B0108BC
:103DC000D0F8980203F038BF122301480B807047E7
:103DD000D0000024122301480B807047BC0000244F
:103DE000042301480B807047E400002410B5044C04
:103DF0000A460448214608F029FC204610BD00BFB1
:103E000040D20024D02B010810B5044C0A460448C7
:103E1000214608F01BFC204610BD00BF40D2002404
:103E2000E02B010810B5044C0A460448214608F06E
:103E30000DFC204610BD00BF40D20024F42B010829
:103E400010B5044C0A460448214608F0FFFB204602
:103E500010BD00BF40D20024002C010810B5044C56
:103E60000A460448214608F0F1FB204610BD00BF79
:103E700040D20024102C0108042301480B80704715
:103E8000E400002410B5044C0A460448214608F01A
:103E9000DDFB204610BD00BF40D20024D02B01081E
:103EA000464A4FF01A0CD2F80008D2F80838A1F8A8
:103EB00000C0C31801D142487047180FB3F1204F1A
:103EC000D2F804184FF0000C3D4A2CBF3730303088
:103ED00082F803C04FF0000C9070C3F3036082F8C7
:103EE00005C04FF0000C092882F807C04FF0000C05
:103EF0008CBF3730303082F809C04FF0000C1071A1
:103F0000C3F3035082F80BC04FF0000C092882F86D
:103F10000DC08CBF373030309071C3F30340092897
:103F20008CBF373030301072C3F3033009288CBF98
:103F3000373030309072C3F3032009288CBF3730FC
:103F400030301073C3F3031003F00F0309288CBF44
:103F500037303030092B90734FF0000094BF30336E
:103F60003733B1F1204FD07313744FEA11734FF010
:103F700000002CBF37333033507400209374C1F3EA
:103F80000363D0740020092B50754FF000008CBFE4
:103F900037333033D0751375C1F303530848092BF9
:103FA0008CBF373330339375C1F30343092B94BF70
:103FB00030333733137600235376704700E0F11F18
:103FC000E8000024464A4FF01A0CD2F80008D2F854
:103FD0000838A1F800C0C31801D142487047180F33
:103FE000B3F1204FD2F804184FF0000C3D4A2CBF1B
:103FF0003730303082F803C04FF0000C9070C3F3BC
:10400000036082F805C04FF0000C092882F807C051
:104010004FF0000C8CBF3730303082F809C04FF0C1
:10402000000C1071C3F3035082F80BC04FF0000C6A
:10403000092882F80DC08CBF373030309071C3F33F
:10404000034009288CBF373030301072C3F303307F
:1040500009288CBF373030309072C3F30320092811
:104060008CBF373030301073C3F3031003F00F03ED
:1040700009288CBF37303030092B90734FF0000087
:1040800094BF30333733B1F1204FD07313744FEAFC
:1040900011734FF000002CBF3733303350740020C1
:1040A0009374C1F30363D0740020092B50754FF053
:1040B00000008CBF37333033D0751375C1F3035311
:1040C0000848092B8CBF373330339375C1F3034352
:1040D000092B94BF30333733137600235376704760
:1040E00000E0F11FE800002410B5044C0A46044823
:1040F000214608F0ABFA204610BD00BF40D2002494
:10410000002C010810B5044C0A460448214608F06A
:104110009DFA204610BD00BF40D20024F42B0108B8
:10412000D0F8C00208F004BBD0F8C00208F018BBF9
:10413000D0F8C00208F020BB704700BFD0F8C00222
:1041400008F006BBD0F8C00208F006BBD0F8D003D8
:1041500008B502F083FD032802D8024B185C08BDA5
:10416000022008BD242C0108024B027853F82200DB
:10417000704700BF482C0108024B427833F8120008
:10418000704700BF282C01088CB00A2814D8DFE83B
:1041900000F01523313F4D5B6977859306004D4B49
:1041A000D3F8E02042F48062C3F8E020D3F8E03096
:1041B00003F480630B930B9B0CB07047454BD3F813
:1041C000E02042F00102C3F8E020D3F8E03003F031
:1041D00001030193019BEFE73E4BD3F8E02042F04F
:1041E0000202C3F8E020D3F8E03003F002030293A8
:1041F000029BE1E7374BD3F8E02042F00402C3F81A
:10420000E020D3F8E03003F004030393039BD3E7EB
:10421000304BD3F8E02042F00802C3F8E020D3F896
:10422000E03003F008030493049BC5E7294BD3F85F
:10423000E02042F01002C3F8E020D3F8E03003F0B1
:1042400010030593059BB7E7224BD3F8E02042F01B
:104250002002C3F8E020D3F8E03003F020030693F7
:10426000069BA9E71B4BD3F8E02042F04002C3F8BD
:10427000E020D3F8E03003F040030793079B9BE76F
:10428000144BD3F8E02042F08002C3F8E020D3F8CA
:10429000E03003F080030893089B8DE70D4BD3F8C3
:1042A000E02042F48072C3F8E020D3F8E03003F459
:1042B00080730993099B7FE7064BD3F8E02042F413
:1042C0000072C3F8E020D3F8E03003F400730A93DF
:1042D0000A9B71E700440258704700BF0F4B1B78E0
:1042E0000BB90120704710B504464FF47A700C4AA0
:1042F000B0FBF3F31068B0FBF3F000F0C1FE0F2C3D
:1043000000D808B1012010BD002221464FF0FF3037
:1043100000F056FE034B00201C6010BD020100247B
:104320004C0000240401002438B50320124D00F095
:1043300035FE124C04F0F4FC114A12499369C3F3A0
:104340000323CB5C03F01F0320FA03F30E202B6042
:10435000926902F00F028A5C02F01F02D3402360D0
:10436000FFF7BCFF10B10124204638BD0446FFF71B
:10437000B3FF204638BD00BF4C000024500000248D
:1043800000440258BC2B0108034A044B11681B78F7
:104390000B441360704700BF04D7002402010024BF
:1043A000014B1868704700BF04D7002438B5044695
:1043B000FFF7F6FF0546631C02D0044B1B781C4434
:1043C000FFF7EEFF431BA342FAD338BD02010024DE
:1043D000014B1868000C70470010005C704700BF6C
:1043E000806B08B5FFF7FAFF08BD00BF836B5A6DFD
:1043F00012F0500F5A6D10B51DD1196842F40072B9
:104400005A650A6812F0080FCA681BD012F4406F90
:104410000DD1CA6894040AD45A6D22F480725A6588
:104420005A6DD10403D45A6D42F001025A65184600
:10443000FDF7D2FC10BDD2060AD4DB6CBDE81040FB
:10444000DB6C18479007E7D01846FDF7C5FCF1E78D
:104450001846FDF765FD10BD806B08B5436D43F050
:1044600040034365836D43F004038365FDF758FD06
:1044700008BD00BFF0B5002283B0019290F8502033
:10448000012A00F01C81034601201A6883F85000BD
:104490009468640700F18A800C68C4F31305002D4A
:1044A00040F08F80C4F38464A0404D684FF01F0E2D
:1044B000D6694FEA951C30430CF00C0CD06105F026
:1044C0001F0002F1300584400EFA00FE5CF8050082
:1044D00020EA0E0004434CF80540906840076ED473
:1044E000956815F0080547D10C68072002F11406FD
:1044F000B94F4FEAD45CC4F304540CF0040C00FA36
:1045000004FE886800FA04F45CF8060020EA0E0055
:1045100020434CF80600386800F07040B0F1805F2E
:1045200000F0C580D068D668C70600F1E880C6F301
:1045300082064869760000FA06F60F69042F00F03B
:10454000C18002F16004086854F827C000F0F84008
:104550000CF0004C40EA0C00304344F82700487E41
:104560000E69012854F8260008BF4FF0004520F0DE
:104570000040054344F826509068C40714D4CE6820
:10458000086806F01807954CD2F8C050FC40C0F3FC
:104590001307044025EA07052C43C2F8C040904C9D
:1045A000A64246D0002816DB002003E05A6D42F0F8
:1045B00020025A65002283F8502003B0F0BD9068B5
:1045C000DAE794FAA4F5B5FA85F5C4F3846405F046
:1045D0001F05A84069E783498A4200F0B68001F5CB
:1045E00080718A4200F0B1807F4D804CA968A46838
:1045F00001F0E076E44304F00104002C00F0B48004
:104600007B4CA04200F0FC807A4CA04200F01A8162
:10461000794CA042C8D14902C6D474498A42C3D158
:10462000AA68002022F0E072324342F48002AA60BD
:10463000C0E7002F6AD090FAA0F4B4FA84F40134F1
:1046400004F01F04092C00F2A48090FAA0F4B4FA3C
:1046500084F490FAA0F5B5FA85F501340126013508
:10466000A40605F01F0504F0F84406FA05F52C43EE
:1046700090FAA0F0B0FA80F0304400F01F0000EB98
:10468000400000052043C60D02F11405C0F304509C
:10469000072406F0040604FA00F7745924EA070414
:1046A0008F6807FA00F02043705108687AE7D668EF
:1046B0004869C6F38206760000FA06F63DE7022056
:1046C00003B0F0BD106E0C6800F0F840A506B0EB2A
:1046D000846F30D0506E00F0F840854226D0906E46
:1046E00000F0F84085422BD0D06E00F0F8408542B3
:1046F0007FF442AFD06E20F00040D0663CE77608F1
:10470000486906F0080600FA06F616E7800E441C13
:1047100004F01F06092E2DD8A406012004F0F84449
:10472000B040044306EB46000005ABE7506E20F0B6
:1047300000405066D3E7106E20F000401066C9E7D5
:10474000906E20F000409066CEE7264C2B4D04F58D
:104750008074A96854F8F86CA468344301F0E076DA
:10476000E44304F0010448E75A6D012042F02002BE
:104770005A651FE706EB4600A50601241E3805F022
:10478000F84504FA06F60005354340F0007028436A
:1047900079E790FAA0F5B5FA85F590FAA0F4B4FAA5
:1047A00084F4013501260134AD0604F01F0405F040
:1047B000F84506FA04F4254390FAA0F4B4FA84F418
:1047C000344404F01F0404EB4404A4F11E0000056B
:1047D00040F00070DBE700BF0010005CFFFF0F003F
:1047E0000000FF47002002400063025800600258AA
:1047F000000084CB000052C70000B8CF0023024065
:1048000008023FF5D1AE17498A427FF4CDAE164A71
:10481000A9681268154821F0E07192093143A0FBA4
:10482000020241F400019209A96052000192019A2A
:10483000002A3FF4B9AE019A013A0192019A002A86
:10484000F9D1B1E611F080707FF4AEAE05498A422D
:104850007FF4AAAEAA6822F0E072324342F080727E
:10486000AA60A7E6006002584C000024632D3E05B4
:1048700003689A68D20701D5002070479968214AD9
:10488000114270B5044608D0636D012043F0100357
:104890006365A36D0343A36570BD99681A4A0A4016
:1048A00042F001029A60FFF77BFD2368174A054634
:1048B00093421ED002F5807293421AD0144A926835
:1048C000114E0AE09A68324042F001029A60FFF706
:1048D00067FD401B0228D7D823681A68D2070FD477
:1048E0009A68D107EED5FFF75BFD401B0228F3D98C
:1048F000CAE7084A9268D006E2D0074A9342DFD15D
:10490000002070BD3F000080C0FFFF7F00200240FC
:104910000063025800230240002102402DE9F041CB
:104920003A4D044600680F461646A84219D0384B47
:10493000984216D0374DAB688068420716D494F879
:104940005020012A12D003F01F080122B8F1090FEC
:1049500084F850200DD90023012084F85030BDE8A0
:10496000F0812D4DAB6880684207E8D50220BDE894
:10497000F08140F2212323FA08F3DB4313EA020516
:10498000E9D12046FFF774FF002839D1626D234B2F
:104990002168134043F480736365B8F1000F02D0BF
:1049A0001B4B994203D0636D23F480136365636DE1
:1049B00013F4805328D0A36D23F00603A365E06CA5
:1049C0003346174D3A464031C563164D0564164DC2
:1049D000C5641C2541F8405C002584F8505051F80E
:1049E0003C5C45F0100541F83C5C00F059FE226843
:1049F0000E4B91680B4043F004039360BDE8F081D7
:104A000084F85050BDE8F081A365D8E7002002404B
:104A1000002102400063025800230240FEF0FFFF25
:104A2000ED430008E143000859440008C0FFFF7F40
:104A300038B503689A68910702D59B68002038BD95
:104A40009A68D20723D59A68044602F00D02012A1B
:104A500008D0636D012043F010036365A36D034329
:104A6000A36538BD986803210A4A024042F0020259
:104A70009A601960FFF794FC054604E0FFF790FC8C
:104A8000401B0228E5D823689B68DB07F6D400208A
:104A900038BD00BFC0FFFF7F38B5574A04460368E2
:104AA000934226D002F58072934222D0534B9B68EA
:104AB00013F4403F22D004F0EDFA63680546B3F5E5
:104AC000003F00F08880B3F5403F70D0B3F5803FE1
:104AD00000F08180FFF77CFC41F2030398422DD85F
:104AE000474B9D425DD92268936843F4807393607D
:104AF00038BD444B9B6813F4403FDCD14FF4002099
:104B000005F094FB63680546B3F5101F6DD008D817
:104B1000B3F5E01F55D01AD9B3F5001FDAD1450916
:104B2000D8E7B3F5201F4AD0B3F5301FD2D1FFF735
:104B30004FFC41F20303984233D92D0A324B9D4278
:104B40001DD82268936823F44073936038BDB3F591
:104B5000801F06D00AD9B3F5A01F02D0B3F5C01F3D
:104B6000B8D19B0C5B00B5FBF3F5B3E7B3F5002FB1
:104B7000F7D023F40022B2F5802FF2D0AAE7234B1E
:104B8000234A2B4493421ED9224B234A2B4493425F
:104B9000226893682BD823F4407343F40073936026
:104BA00038BD2268936823F48073936038BD85080C
:104BB000FFF70EFC41F203039842BFD890E7C50906
:104BC00088E7050986E72268936823F4407343F475
:104BD0008073936038BD1B0CB5FBF3F5FFF7F8FB52
:104BE00041F203039842A9D87AE7850972E743F4B2
:104BF0004073936038BD00BF00200240006302583C
:104C0000002D310100230240105E5F00EFA1A0FFE4
:104C10000F5E5F00DF4341FF1FBCBE0030B50023C5
:104C200083B00193002800F0D080456D0446002D2C
:104C300000F0BA80226893689B0003D59168714B9D
:104C40000B4093609368DD0015D46F4B90686F49FB
:104C50001B6801406E489B0941F08051A0FB030393
:104C600091609B090193019B2BB1019B013B019337
:104C7000019B002BF9D19368D80024D4636D0125E2
:104C800043F010036365A36D2B43A365936813F092
:104C9000040F636D1DD1D9061BD4636D23F481739A
:104CA00043F0020363659368DB0728D4594B9A42AB
:104CB00017D003F580739A4213D0574B9B68D907DE
:104CC0001DD4564A15E09368002513F0040F636D58
:104CD000E1D0636D012543F010032846636503B0FE
:104CE00030BD4C4A4E4B92689B681343D80706D49C
:104CF0004C4A9368616823F47C130B439360FFF77D
:104D000067FB41F20303A1689842237F52D894F8CD
:104D100015C01A04206B42EA4C3202430A43012BAD
:104D200003D1236A013B42EA4342636A23B103F49D
:104D30007873A16A0B431A4323683B49D868014042
:104D40000A43DA609A6812F0040F9A681CD11207BD
:104D50001AD4D868354A217D024042EA8132E16A9C
:104D60000A43DA6094F83820012A3AD01A6922F00E
:104D700001021A611A692046616B22F070420A43EF
:104D80001A61FFF789FE2368E268012A21D01A6BB5
:104D900022F00F021A63636D284623F0030343F0E9
:104DA0000103636503B030BDFCF7C4FFA56584F85B
:104DB00050503FE71029AAD1617D1A0442EA4132DE
:104DC000216B0A4342F01C02A9E70125284603B0E3
:104DD00030BD196BA26921F00F01013A0A431A6331
:104DE000D9E7D4E9102118690A43114901400A435F
:104DF000A16C0A43E16B42EA014242F001021A61EE
:104E0000B8E700BFC0FFFF5F4C000024C0FFFF6F8A
:104E1000632D3E05002002400060025800630258E6
:104E2000002102400023024003C0F0FFFCBFFFFF4F
:104E30001EF800FCF0B5002383B0019390F85030C9
:104E4000012B40D0012304460E46154680F8503011
:104E5000FFF7EEFDE8B9676D05F080421B4B06F4E5
:104E600080311B4D3B401B4F43F0020363652368B9
:104E70009E68354015430D4345F000459D609A6896
:104E8000002A0FDB636D23F0030343F00103636526
:104E900003E0636D43F010036365002384F8503032
:104EA00003B0F0BD019A01320192019ABA42E6D9EB
:104EB000636D0022012023F0120384F8502043F098
:104EC00010036365ECE7022003B0F0BDFDEEFFFFC9
:104ED000C0FFFE3FFF955A55F0B490F850200E6881
:104EE000012A49D00346294A01201C6883F8500052
:104EF000944208D05A6D002142F0200283F85010ED
:104F00005A65F0BC7047224DAA6852070AD5A268BC
:104F10005A6D012042F020025A65002283F8502089
:104F2000F0BC7047A06810F00400F1D1C6B1DFF802
:104F300068C04F68DCF8082022F440423A43CCF8BD
:104F40000820A468AA682243D40713D48A68DCF82E
:104F5000081016430F4A0A401643CCF80860DCE7F5
:104F60000D498A6822F440428A60A068AA68024318
:104F7000D00704D50020D0E70220F0BC70478C6831
:104F80003046044A22408A60C7E700BF0020024042
:104F900000210240E0F0FFFF0023024006494FF6E7
:104FA000FF0C0002054BCA6800F4E06002EA0C0244
:104FB00010430343CB60704700ED00E00000FA05AA
:104FC0001B4BDB68C3F3022300B5C3F1070E03F1EB
:104FD000040CBEF1040F28BF4FF0040EBCF1060F05
:104FE0001AD9033B4FF0FF3C0CFA03FC22EA0C02F7
:104FF0004FF0FF3C00280CFA0EFC21EA0C0101FAEC
:1050000003F141EA02010ADB09010A4BC9B2034478
:1050100083F800135DF804FB00221346E8E700F074
:105020000F000901044BC9B2034419765DF804FB73
:1050300000ED00E000E100E0FCEC00E0002807DB10
:1050400000F01F0101234009024A8B4042F8203042
:10505000704700BF00E100E000280DDB430901229A
:1050600000F01F000549203302FA00F041F8230048
:10507000BFF34F8FBFF36F8F704700BF00E100E0B9
:10508000431EB3F1807F0CD24FF0E022002006498E
:105090004FF0F00C5361072381F823C09061136136
:1050A00070470120704700BF00ED00E0BFF35F8F45
:1050B000044B00215A6A22F480325A62C3F89410D9
:1050C000704700BF00ED00E0064B40F00100C3F860
:1050D00094005A6A42F480325A62BFF34F8FBFF392
:1050E0006F8F704700ED00E0174A4378C2F89830A0
:1050F000017821B3436800B5C2F89C30C37A90F8B8
:105100000CC01B0690F80FE043EA0C7390F80AC03D
:105110000B43817B43EACC4390F80DC043EA8C43B8
:1051200090F809C043EA4143017A43EA0E4343EA57
:105130000C2343EA4103C2F8A0305DF804FBC2F837
:105140009C10C2F8A010704700ED00E0704700BF4F
:1051500008B5FFF7FBFF08BD0268344B344930B493
:10516000344D354CAA4218BF9A420CBF012300238C
:105170008A4208BF43F001033031A24208BF43F026
:10518000010330348A4208BF43F001033031A242A8
:1051900008BF43F0010330348A4208BF43F00103E3
:1051A00001F55C71A24208BF43F0010304F55C7491
:1051B0008A4208BF43F001033031A24208BF43F0E6
:1051C000010330348A4208BF43F001033031A24268
:1051D00008BF43F0010330348A4208BF43F00103A3
:1051E0003031A24208BF43F001038A4208BF43F0B6
:1051F000010313B9114B9A4213D1D3B21049114C88
:10520000103BA1FB03515F2B0F4BC1F3021103EACB
:105210000203615C88BF0433C1658365184630BCF6
:10522000704722F0FF038365F8E700BF10000240DB
:10523000400002402800024058000240B8040240EA
:10524000ABAAAAAA782C010800FCFFFF0368294A30
:10525000294930B4294D2A4CAB4218BF93420CBFA8
:10526000012200228B4208BF42F001022831A342F2
:1052700008BF42F0010228348B4208BF42F001020D
:105280002831A34208BF42F001028B4208BF42F01E
:10529000010212B91B4A934213D1DBB21A4C1B4ACA
:1052A0000121083B1A4DA4FB0343456602EB131290
:1052B000C3F30413920001FA03F30266836630BC61
:1052C0007047DAB21349144C1944103AA829A4FBC8
:1052D00002234FEA131300D80833104A03F01F05C6
:1052E00001210F4C1A44A94044669200816602666F
:1052F000E5E700BF08540258305402581C540258C5
:105300004454025894540258CDCCCCCC009600168C
:1053100080580258F0FBFDBFABAAAAAA0082001079
:105320008008024070B50446FFF73AF8002C00F000
:10533000C68023680546954A934248D01832934266
:1053400045D0303292498B4218BF934201F130016F
:105350000CBF012200228B4208BF42F0010218312B
:105360008B4208BF42F0010218318B4208BF42F065
:10537000010218318B4208BF42F0010201F556715B
:105380008B4208BF42F0010218318B4208BF42F045
:10539000010218318B4208BF42F0010218318B42E2
:1053A00008BF42F0010218318B4208BF42F00102EF
:1053B00018318B4208BF42F0010218318B4208BFFE
:1053C00042F001021AB9734A934240F0F58002227A
:1053D000002184F8352084F834101A6822F0010284
:1053E0001A6005E0FEF7DCFF431B052B40D823685D
:1053F0001A68D107F6D4D4E9022521692A43A069A5
:105400001D680A4361690A43E16902430A4362492C
:105410002940256A2A430A43616A04292FD01A6069
:105420005A6922F00702114359612046FFF794FEA2
:10543000E26D3F2302F01F02934083602046FFF796
:1054400005FFA368802B3CD06368A06EDAB2013BF5
:10545000D4E91851072B2A60486026D90023C4E9F3
:105460001B33636700200123606584F8353070BD0D
:10547000202203230120626584F8353070BDD4E911
:105480000B5129430A431A605969A26A21F00701A6
:10549000114341F00401002DC6D000284FD1012A4C
:1054A0006ED032F00202BFD151E0501E072810D951
:1054B000626FD4E91B31002018604A60D2E70120F6
:1054C00070BD0023A16ED4E91802636003605160CF
:1054D000C4E72168314B324DA94218BF994205F10A
:1054E00014050CBF01230023A94208BF43F00103A8
:1054F0001435A94208BF43F001031435A94208BF7F
:1055000043F001031435A94208BF43F001031435E9
:10551000A94208BF43F001033BB9224B994204D092
:10552000214B224913449B0003E0214B21491344A2
:105530009B0001228240C4E91B316267BBE7B0F5E2
:10554000005F0ED0022A05D9032A7FF46DAFEA016D
:105550007FF56AAF012340221846626584F8353032
:1055600070BD032A3FF660AF01A050F822F000BFE3
:10557000555500084F55000855550008815500083D
:10558000B5F1C07F7FF450AFE4E700BF10000240E8
:1055900040000240B80402403F8010FE0854025808
:1055A0001C540258945402583F8200104009024093
:1055B0003F96001640590258324A334833498342D5
:1055C00018BF934200F128000CBF012200228B4239
:1055D00008BF42F001022831834208BF42F00102B5
:1055E00028308B4208BF42F001022831834208BFB5
:1055F00042F001028B4208BF42F0010212B9244A74
:10560000934238D102220021224D84F8341084F8CC
:1056100035201A681540A268402A2AD0802A0CBF7B
:105620004FF480400846266AD4E90312D20842EAC1
:10563000D102616942EAD102A16942EAD102E1697B
:1056400042EAD102144942EA161219442A4302439B
:105650001248A0FB010120461A600B099B00E3657C
:10566000FFF77AFDE26D012302F01F0293404360D1
:10567000E4E61020D7E7402203230120626584F886
:10568000353070BD085402581C540258305402582A
:10569000945402580F00FEFFF8ABFDA7CDCCCCCC44
:1056A000002800F0BC80844690F83400012800F007
:1056B000B88001202DE9F0419CF835408CF8340089
:1056C000844208D000224FF400638CF83420CCF8D8
:1056D0005430BDE8F0810220DCF800507A4C8CF8A0
:1056E00035000020794ECCF854007948854218BF27
:1056F000A54200F118000CBF01240024854208BF18
:1057000044F001041830854208BF44F00104183009
:10571000854208BF44F001041830854208BF44F0B8
:10572000010400F55670854208BF44F001041830AA
:10573000854208BF44F001041830854208BF44F098
:1057400001041830854208BF44F001041830854236
:1057500008BF44F001041830854208BF44F001043A
:105760001830854208BF44F001041830854208BF54
:1057700044F00104A0F59560B54218BF8542DCF8FD
:105780006C600CBF0120002054EA0008286820F05B
:1057900001002860DCF86400DCF86840DCF8587030
:1057A000446040D016B1DCE91C044460DCF85C00C5
:1057B0004FF03F0E00F01F000EFA00F0B8602868AE
:1057C00020F4802028606B60DCF80830402B23D068
:1057D000A960EA602B6823F01E0343F016032B60D8
:1057E000DCF840301BB12B6843F008032B60DCF879
:1057F00060301A68D20303D51A6842F480721A60C6
:105800001EB1336843F4807333602B68002043F08B
:1058100001032B60BDE8F081AA60E960DAE70120AE
:1058200070470220704716B1DCE91C044460294827
:10583000DFF8A8E0754518BF85420EF1140E0CBFC5
:1058400001200020754508BF40F001000EF1140E44
:10585000754508BF40F001000EF1140E754508BFF4
:1058600040F001000EF1140E754508BF40F0010034
:105870000EF1140E754508BF40F0010010B916482E
:1058800085420ED1DCF85C0000F01F0E012000FA0A
:105890000EF078606B60DCF80830402B10D0A96007
:1058A000EA602B6823F00E0343F00A032B60DCF858
:1058B0004030002B9BD02B6843F004032B6096E70D
:1058C000AA60E960EDE700BF400002402800024006
:1058D0005800024008540258945402581C5402586C
:1058E00000285FD038B590F835200346022A55D1FC
:1058F0000168444A914248D01832914245D0303232
:10590000414C4248A14218BF914204F148040CBFE7
:1059100001220022814208BF42F001023030A14240
:1059200008BF42F001023034814208BF42F0010258
:1059300000F55C70A14208BF42F0010204F55C74FE
:10594000814208BF42F001023030A14208BF42F05C
:1059500001023034814208BF42F001023030A142DE
:1059600008BF42F001023034814208BF42F0010218
:105970003030A14208BF42F00102814208BF42F02C
:10598000010212B9224A91420ED10422002083F86A
:1059900035200B6823F001030B6038BD8022012005
:1059A0005A6538BD012070470A681C6E22F00E024D
:1059B000D86D9D6D0A6000F01F000A6822F0010298
:1059C0000A6001222168824021F4807121606A60AE
:1059D000DA6ED3E91910486032B11168D3E91C04BA
:1059E00021F4807111604460002401211A6D83F854
:1059F000344083F835101AB118469047204638BD18
:105A0000104638BD100002404000024070000240C5
:105A1000B80402402DE9F04300229C4B83B09C4E19
:105A20001D688146019203689A4A846D934218BFAB
:105A3000B342276808BF0126216818BF002645D059
:105A400018329548834218BF934200F118000CBFEA
:105A500001220022834208BF42F001021830834233
:105A600008BF42F001021830834208BF42F0010231
:105A70001830834208BF42F0010200F5567083429D
:105A800008BF42F001021830834208BF42F0010211
:105A90001830834208BF42F001021830834208BF29
:105AA00042F001021830834208BF42F00102183070
:105AB000834208BF42F001021830834208BF42F01F
:105AC00001021AB9754A934240F05082D9F85C102D
:105AD000082201F01F0C02FA0CF2174240F08881F4
