:020000040800F2
:10000000000002208906000885060008493C000817
:100010008506000885060008850600080000000027
:10002000000000000000000000000000850600083D
:10003000850600080000000085060008CD3B00088A
:100040008506000885060008850600088506000864
:100050008506000885060008850600088506000854
:100060008506000885060008850600088139000815
:100070008D390008FD26000899390008A5390008C7
:10008000F9EC0008AD2E000885060008850600087A
:100090008506000885060008850600088506000814
:1000A0008506000885060008850600088506000804
:1000B000F1E00008FDE0000809E10008E12E000879
:1000C00085060008ED2E00088506000861D90008A5
:1000D0006DD900082DEB000859EB00088DEB0008E6
:1000E0008506000885060008000000008506000857
:1000F00085060008850600088506000885060008B4
:10010000850600088506000815E1000879D9000871
:10011000C1EB0008F5EB000885060008850600081D
:1001200085060008850600089DD90008D1D9000879
:100130002DED0008850600088506000885060008E4
:1001400000000000000000000000000000000000AF
:1001500085060008850600088506000829EC0008C9
:10016000F92E000885060008DD3B0008013C000868
:1001700085060008253C000885060008850600085D
:1001800085060008850600085DEC000891EC000873
:1001900085D9000891D90008850600088506000861
:1001A0008506000885060008850600088506000803
:1001B000A1360008850600088506000885060008A7
:1001C00085060008850600088D1D0008991D000899
:1001D00085060008A51D000885060008850600089C
:1001E00085060008850600088506000885060008C3
:1001F00085060008850600088506000885060008B3
:1002000085060008850600088506000885060008A2
:100210008506000885060008850600088506000892
:100220008506000885060008850600080000000015
:100230008506000885060008000000008506000805
:100240008506000885060008850600088506000862
:100250008506000885060008850600088506000852
:100260008506000885060008850600088506000842
:100270008506000885060008C5EC0008000000009F
:1002800085060008850600088506000800000000B5
:080290000000000085060008D3
:1002A00010B5054C237833B9044B13B10448AFF3B0
:1002B00000800123237010BD100600240000000000
:1002C000585E010808B5034B1BB103490348AFF35F
:1002D000008008BD0000000014060024585E0108DC
:1002E00001F0FF01102A2BDB10F0070F08D010F8E7
:1002F000013B013A8B422DD010F0070F42B3F6D1EB
:10030000F0B441EA012141EA014122F007047FF003
:1003100000070023F0E80256083C85EA010586EA5A
:10032000010685FA47F5A3FA87F586FA47F6A5FA96
:1003300087F68EB9EED1F0BC01F0FF0102F00702A2
:1003400032B110F8013B013A83EA010313B1F8D14D
:100350000020704701387047002D06BF354603382E
:10036000073815F0010F07D1013015F4807F02BF67
:10037000013015F4C03F0130F0BC0138704700BFB8
:1003800053B94AB9002908BF00281CBF4FF0FF31FC
:100390004FF0FF3000F074B9ADF1080C6DE904CEF8
:1003A00000F006F8DDF804E0DDE9022304B0704750
:1003B0002DE9F047089D04468E46002B4DD18A4218
:1003C000944669D9B2FA82F252B101FA02F3C2F14B
:1003D000200120FA01F10CFA02FC41EA030E9440DC
:1003E0004FEA1C48210CBEFBF8F61FFA8CF708FBFD
:1003F00016E341EA034306FB07F199420AD91CEBD5
:10040000030306F1FF3080F01F81994240F21C8106
:10041000023E63445B1AA4B2B3FBF8F008FB10334E
:1004200044EA034400FB07F7A7420AD91CEB040483
:1004300000F1FF3380F00A81A74240F20781644453
:10044000023840EA0640E41B00261DB1D4400023D8
:10045000C5E900433146BDE8F0878B4209D9002D3C
:1004600000F0EF800026C5E9000130463146BDE8C6
:10047000F087B3FA83F6002E4AD18B4202D3824230
:1004800000F2F980841A61EB030301209E46002DDF
:10049000E0D0C5E9004EDDE702B9FFDEB2FA82F234
:1004A000002A40F09280A1EB0C014FEA1C471FFA92
:1004B0008CFE0126200CB1FBF7F307FB131140EA79
:1004C00001410EFB03F0884208D91CEB010103F146
:1004D000FF3802D2884200F2CB804346091AA4B208
:1004E000B1FBF7F007FB101144EA01440EFB00FEDC
:1004F000A64508D91CEB040400F1FF3102D2A64541
:1005000000F2BB800846A4EB0E0440EA03409CE7DF
:10051000C6F12007B34022FA07FC4CEA030C20FA8C
:1005200007F401FA06F31C43F9404FEA1C4900FAAC
:1005300006F3B1FBF9F8200C1FFA8CFE09FB181129
:1005400040EA014108FB0EF0884202FA06F20BD99C
:100550001CEB010108F1FF3A80F08880884240F2EC
:100560008580A8F102086144091AA4B2B1FBF9F030
:1005700009FB101144EA014100FB0EFE8E4508D92B
:100580001CEB010100F1FF346CD28E456AD90238B0
:10059000614440EA0840A0FB0294A1EB0E01A14295
:1005A000C846A64656D353D05DB1B3EB080261EB03
:1005B0000E0101FA07F722FA06F3F1401F43C5E9DD
:1005C000007100263146BDE8F087C2F12003D84013
:1005D0000CFA02FC21FA03F3914001434FEA1C4755
:1005E0001FFA8CFEB3FBF7F007FB10360B0C43EA47
:1005F000064300FB0EF69E4204FA02F408D91CEBF7
:10060000030300F1FF382FD29E422DD902386344F4
:100610009B1B89B2B3FBF7F607FB163341EA034194
:1006200006FB0EF38B4208D91CEB010106F1FF38E3
:1006300016D28B4214D9023E6144C91A46EA0046DA
:1006400038E72E46284605E70646E3E61846F8E66C
:100650004B45A9D2B9EB020864EB0C0E0138A3E7B5
:100660004646EAE7204694E74046D1E7D0467BE796
:10067000023B614432E7304609E76444023842E70E
:10068000704700BFFEE700BF0B480C4A904203D002
:10069000121A0B4912F060F80A480B4A904203D034
:1006A000121A002112F066F803F02CFD12F020F867
:1006B00000F016FDFEE700BF000000241006002435
:1006C000905E01081006002478FA0024704700BFED
:1006D000704700BF10B50E4982B0002401230D48B9
:1006E00022460968009402F0B5F80B49224601231E
:1006F00009680A48009402F0ADF80949012322462E
:1007000009680848009402F0A5F802B010BD00BFC7
:10071000683F0108A00600246C3F0108B4060024CD
:10072000703F0108C806002410B5124982B00024A9
:100730000122114823460968009402F08BF80F4902
:100740002346012209680E48009402F083F80D49FF
:100750002346012209680C48009402F07BF80B49FB
:100760002346012209680A48009402F073F802B097
:1007700010BD00BF7C3F01082C060024803F01080B
:1007800040060024843F010854060024883F0108E5
:100790006806002470B5104982B000240F4E012372
:1007A000096822463046009402F054F80C4D0D4979
:1007B0002246012328460968009402F04BF830468F
:1007C00002F02EF9084B024628461A6002F028F97A
:1007D000064B186002B070BD743F0108E0060024AB
:1007E000F4060024783F0108C4070024C807002449
:1007F0002DE9F04F0F20A3B000F01CFD0346DFF8F9
:100800002CA10222ADF804300DF1640B0199504681
:1008100001F0E0FCDFF818811020404F00F00AFDE5
:10082000ADF808000299022240463D4E01F0D2FC8C
:10083000112000F0FFFCADF80C00039902223846AD
:10084000384D01F0C7FC122000F0F4FCADF81000A8
:10085000049902223046344C01F0BCFC132000F015
:10086000E9FCADF81400059902222846DFF8C4908F
:1008700001F0B0FC142000F0DDFCADF81800069982
:100880002046022201F0A6FCA44607AC0DF1400E62
:10089000BAE80F000FC4DAF800302380B8E80F0080
:1008A000CDF83A30B8F80030CDF82E00CDF832103F
:1008B000CDF83620ADF83E300FCFAEE80F003B68E4
:1008C000AEF800300FCECDF85E303388CDF8520050
:1008D000CDF85610CDF85A20ADF862300FCDABE808
:1008E0000F002B68ABF80030BCE80F00CDF87600A5
:1008F000BCF80000CDF87A1007A9CDF87E200622BA
:10090000CDF882300423ADF88600484601F076FC2D
:10091000484601F081FE23B0BDE8F08F3407002483
:10092000880700249C070024B00700240C0700243B
:100930002007002460070024F8B50646144F154828
:1009400002F06EF80446144802F06AF83B68054667
:10095000A34210D0114A8442136814BF013303F13B
:10096000FF3383F30700106012F030F846B90C4BE8
:100970003C601D60F8BD0A4B1A688242F8D1F8BD90
:1009800012F052F80146074801F01EF9EFE700BFE8
:10099000C4070024E0060024F4060024080700240D
:1009A000C80700241C3E0108DFED1A7AB0EE007A79
:1009B000BFEE001AC0EEA76A08B52DED028BB0EEAF
:1009C000408AB0EE000BA6EE871AB7EEC11A11F0FE
:1009D0004BF9F7EE007AF7EEC00BF4EEE70AF1EE12
:1009E00010FA0FD4F4EE670AB0EE480AF1EE10FAEE
:1009F00002D1BDEC028B08BDBDEC028BBDE8084006
:100A000011F0FEBBB0EE480ABDEC028BBDE8084019
:100A100011F0F6BB00C07F4470B503F085F9394B87
:100A200004461B78032B08D8DFE803F04A02370896
:100A3000354D2B68C31A642B54D870BD324D2B68CA
:100A4000C31A962BF9D9314E31483178B1FA81F178
:100A5000490901F0F1FF31782E48A1F10101B1FA05
:100A600081F1490901F0E8FF31782B48A1F1020139
:100A7000B1FA81F1490901F0DFFF31782748A1F18E
:100A80000301B1FA81F1490901F0D6FF33782C60F6
:100A9000013303F00303337070BD1B4D2B68C31A81
:100AA000C82BCAD91E4E1C48317881F00101317023
:100AB00001F0C2FF3178194801F0BEFF2C6070BD13
:100AC0000021134801F0B8FF0021124801F0B4FFE3
:100AD0000021114801F0B0FF00211048BDE870402E
:100AE00001F0AABF0E4E0A48317881F00101317041
:100AF00001F0A2FF3178074881F0010101F09CFF6D
:100B00002C6070BDDD060024980600249C0600249D
:100B10002C06002440060024540600246806002405
:100B20009D0600242DE9F04100210446CF48D04E17
:100B30002DED088B88B0B7EE00BA01F083FD0121DE
:100B4000CA48F0EE40AA01F07DFD0221C748B0EE90
:100B5000409A01F077FD0321C448B0EE40AA01F0AD
:100B600071FD0421C1487BEE409A01F06BFD052127
:100B7000BE487BEE408A01F065FDD6ED007A9FED20
:100B8000BD7A3BEE40BA7AEEE77AF0EEE77AF4EE21
:100B9000C77AF1EE10FA40DDDFEDB77AB74F6AEEB3
:100BA000A77A3B78FDEEE77A17EE905A0A2DD4BF6C
:100BB0004FF000084FF00108434500F05081B0238A
:100BC0000A2D07A94FF003028DF81C30CCBF7F23FC
:100BD0000023AB4803918DF81E3052238DF81D3051
:100BE00001F0C4FA039987F80080B0230322A448D7
:100BF0008DF81C3055238DF81E508DF81D3001F0F6
:100C0000B5FA44B19F492A469F4BA0480A2DC8BF58
:100C1000194600F0D9FFC6ED00AA9D4F9FED957AC9
:100C2000D7ED007A9B4D79EE677AF0EEE77AF4EE35
:100C3000C77AF1EE10FA00F3BA80D5ED007A78EEBB
:100C4000E77AF0EEE77AF4EEC77AF1EE10FA00F305
:100C5000AE80914E9FED877AD6ED007A8F4F7AEE77
:100C6000677AF0EEE77AF4EEC77AF1EE10FA7ADC02
:100C7000D7ED007A7BEE677AF0EEE77AF4EEC77A8A
:100C8000F1EE10FA6FDC864F9FED7A7AD7ED007A9D
:100C900079EEE77AF0EEE77AF4EEC77AF1EE10FA41
:100CA0004FDDDFED757ADFF8188269EEA77AD8F8A4
:100CB0000030FDEEE77A17EE906AB3423FD0DFEDE9
:100CC000797AB02369EEA77A8DF810308DF8143058
:100CD0008DF81830FDEEE77A8DF81C3017EE903A5B
:100CE00019338DF81A30F3B28DF812308DF81630B2
:100CF0008DF81E3049238DF811304B238DF81530B7
:100D00004C238DF8193048238DF81D30002C40F00D
:100D1000A880032204A95A4801F028FA032205A951
:100D2000574801F023FA032206A9554801F01EFA9C
:100D3000032207A9524801F019FAC8F80060C7ED6C
:100D4000009AD5ED007A9FED4B7A78EEE77AF0EED7
:100D5000E77AF4EEC77AF1EE10FA6EDC08B0BDEC7B
:100D6000088BBDE8F081DFED500AB0EE4A0A6BEE69
:100D7000200AFFF719FEDFED407AB02320EE270AA4
:100D80008DF81C304A23FDEEC07A8DF81D3017EE29
:100D9000901A8DF81E10002C47D1032207A938485D
:100DA00001F0E4F986ED00AA87ED00BA6BE7DFED0C
:100DB00032AAB0EE490ADFED3C0A69EE2A7A68EE03
:100DC000A00AFDEEE77A17EE906AFFF7EDFD20EE40
:100DD0002A0AB0238DF81A608DF81830FDEEC07A1B
:100DE0008DF81C30512317EE902A8DF819305B23B3
:100DF0008DF81E208DF81D3074B9032206A92048F5
:100E000001F0B4F9032207A91D4801F0AFF987EDFD
:100E1000009AC5ED008A1CE7B7EEE87A3146234810
:100E20008DED007B00F0D0FEF1E7B7EECB7A2048E5
:100E300053EC172B00F0C8FEB4E7DFED1E7A1E4816
:100E400068EEA77AFDEEE77A17EE901A00F0BCFE86
:100E5000C5ED008A08B0BDEC088BBDE8F08107A99C
:100E6000C3E63146154800F0AFFE66E76007002490
:100E7000880600240AD7233C0000FE429406002482
:100E8000D0070024303E0108343E0108383E0108F6
:100E90008C0600248006002490060024840600248A
:100EA0007C0600240000CC4200C07F44483E01087C
:100EB000743E010800007A44A03E0108903E0108FB
:100EC000040000242DE9F041074682B06F4801F08C
:100ED000A7FD0446DFF804826D4884F0010401F0A8
:100EE0009FFD05466B48E4B201F09AFD98F800308A
:100EF00085F0010580F00106A342EDB2F6B221D0E3
:100F0000654B002C5CD001221A7000238DF806304E
:100F1000B0238DF804304D238DF8053011F084FD99
:100F2000434200F07F0003F07F0358BF58428DF822
:100F30000600002F67D1032201A9584801F016F9D5
:100F400088F80040564C2378AB4201D00DBB257089
:100F5000544C2378B34201D01EB9267002B0BDE8CC
:100F6000F081514A137883F001031370002B77D17D
:100F7000494A8DF806301370B02250238DF80420B2
:100F80008DF80530002F7AD04849494800F01CFE02
:100F9000E3E7484A137883F001031370002B4BD129
:100FA0003D4A8DF806301370B0228DF804205D2282
:100FB0008DF80520002F4DD03F4800F005FEC6E714
:100FC0003E481C7000F000FE3D4B1B68ADF804303D
:100FD0001B0C8DF80630002FADD03A4800F0F4FD20
:100FE000394800F09BFD9DF80410384800F096FD4C
:100FF0009DF80510354800F091FD9DF80610334826
:1010000000F08CFD9CE7324800F0DEFD2E4800F039
:1010100085FD9DF804102D4800F080FD9DF8051019
:101020002A4800F07BFD9DF80610284800F076FD68
:10103000284800F0C9FD83E7174B02221A70B0233D
:101040008DF804305D238DF805307F238DF8063050
:10105000002FB1D1032201A9104801F087F876E7EB
:101060000D4B03221A705023B0228DF805307F23D8
:101070008DF804208DF806300FB1174985E703225B
:1010800001A9064801F072F867E700BFA006002436
:10109000B4060024C8060024DD060024D00700247E
:1010A000090000240A000024DC060024303E010868
:1010B000583F0108109900243C3F0108F83E010800
:1010C000643F0108103F0108E03E0108F43E0108BA
:1010D000AC3E01088C3E0108343E010808000024A3
:1010E00010B50021174C184800F07EF9164800F0A2
:1010F0009FF8FFF7EFFAFFF77BFBFFF715FBFFF712
:1011000049FB20464FF44073238050F8041B01F044
:1011100003F804F1080000F07BFD00210A4800F00C
:10112000A3F80121084800F09BF80020FFF7FAFC23
:101130000020FFF701FC0020FFF7C4FEFFF76CFC66
:10114000EFE700BFCC0700244807002410B529486A
:101150000024294A2949046044610462C46310F0F0
:101160007BFD2748274B4FF44071234AC0F89C3041
:1011700040F20F73C0E90014C0F8A03000F1B401D0
:1011800040F20113C0E92B44C0E929131E4910F0B5
:1011900063FD4FF60B731D4A1D491E48C2E900341A
:1011A000C2E902441C4AC1E90034C1E90244C2E96F
:1011B00000341A49C2E90244194AC0E90034C0E9BE
:1011C0000244C1E90034C1E9024416481649C2E9A3
:1011D0000034C2E90244154AC0E90034C0E90244BF
:1011E000C1E90034C1E90244C2E90034C2E9024461
:1011F00010BD00BF4807002400000024CD060008F1
:10120000CC0700240080707FD1060008B4060024BB
:10121000A0060024C80600242C0600244006002452
:101220005406002468060024E0060024F406002486
:10123000704700BF202882B009D8084B03EB40025A
:1012400013F81030507843EA002002B070470123B1
:101250000C2043EA002002B0704700BF8C3F010819
:10126000084602F063BD00BF253001F0CBBC00BFD3
:1012700010B540F203338EB000244FF60B7240F2EB
:101280000341ADF8083009A80123ADF81020ADF8EE
:1012900024202246ADF80C100094029907940C9477
:1012A000CDE90544CDE90A4401F0D4FA04A80123AC
:1012B00022460399009401F0CDFA09A801F0B0FB91
:1012C00010B901200EB010BD04A801F0A9FBA04286
:1012D0000CBF022020460EB010BD00BF2DE9F0412A
:1012E00003239AB0012700240646CDE914373B4B6F
:1012F000CDE9104340F20453CDE91647ADF848302C
:10130000FFF7B6FFB842054625D0022845D040F683
:101310000132334B0DF12C081894ADF82C200B98AA
:101320001997CDF84A3000F0E3F810A906F13C0017
:1013300002F03EFB302003224FF07E5341460D93D6
:101340000E93CDE90B02F26B06F1140000F04CFB9A
:101350001AB0BDE8F0811023214A06A906908DF845
:1013600028300DF12C081F4BCDF84A20079302942A
:10137000CDE91804CDE9080402A801F0C3FD082353
:10138000029A03A94046ADF80C508DF80E40049522
:1013900005930B9400F0ECF8C7E700200121104BF7
:1013A0000DF12C083A460094CDF84A304FF60B73F5
:1013B0000C94ADF82C302346CDE9180140F60131EC
:1013C0004046ADF818100699CDE90D4401F042FAF7
:1013D0002146404601F030FBA7E700BF04020404A9
:1013E000040604030704010B2DE9F04704462DED24
:1013F000028B82B000294DD0012140F2011200235E
:101400000091ADF804208DF80630364A0127364B9E
:1014100004F10409354904F12908626040F20272BE
:10142000A36040F60663E16004F1250AA4F82520D4
:10143000A4F82930278284F8277084F82B7002F0F2
:1014400017FE054602F07AFC6946064650BB4DB3CE
:1014500004F130008DF8067002F092FD072D3CD1AA
:1014600004F114052046FFF739FF284600F0F8FA8A
:101470002846B0EE408A00F0EFFAD0ED007AF8EEA0
:10148000677A88EE277A84ED0E7A02B0BDEC028B83
:10149000BDE8F08740F2011300918DF80610ADF819
:1014A0000430B2E704F1300002F06AFD072D11D0DC
:1014B0004946204601F070FF0EB9002DD0D15046AC
:1014C00001F0C4FA404601F0C1FA04F1120000F044
:1014D00079F9C5E7002EF2D1C2E74946204601F06E
:1014E0005BFFBDE70508050905070506050A0606B1
:1014F00010B584B003460124ADF8040003A8ADF88C
:101500000C30ADF80E4001F0A1FA214603A801F01D
:1015100079FB204602F00AFC002103A801F072FBCF
:10152000204602F003FC214603A801F06BFB04B047
:1015300010BD00BF10B5C2F3002384B00C46017C7F
:101540008DF80D2043EA4402FA2402238DF80C2082
:1015500003AA009401F06CFD18B10124204604B0E8
:1015600010BD04460A2002F0E1FB204604B010BD85
:10157000034670B543F8042B044684B007C983E8DA
:101580000700A37983B91A210B461E22FA2523747A
:101590002046ADF80C20022303AA009501F048FD77
:1015A00028B1012004B070BD1B210B46EDE70A20D5
:1015B00002F0BCFB4FF4B85200950223ADF80C20AA
:1015C000204603AA217C01F033FD0028E9D10A203E
:1015D00002F0ACFB41F2027200950223ADF80C2040
:1015E000204603AA217C01F023FD0028D9D10A203E
:1015F00002F09CFB042200950223ADF80C2020464B
:1016000003AA217C01F014FD0028CAD10A2002F0AF
:101610008DFB062200950223ADF80C20204603AA7C
:10162000217C01F005FD0028BBD10A2002F07EFBE1
:1016300041F2082200950223ADF80C20204603AAAF
:10164000217C01F0F5FC0028ABD10A20064602F00F
:101650006DFB0095022303AA217C2046ADF80C60A7
:1016600001F0E6FC00289CD1304602F05FFB0095BB
:1016700022790C232046002A8DF80C3003AA4FF063
:10168000020314BF622142218DF80D10217C01F06C
:10169000CFFC002885D1304602F048FB2279D4E9FE
:1016A00002310B43DBB20AB943F0400362790AB15D
:1016B00043F020030E22FA258DF80D3020460095C8
:1016C00002238DF80C2003AA217C01F0B1FC002834
:1016D0007FF467AF0A2002F029FB10220095022355
:1016E000ADF80C20204603AA217C01F0A1FC0028C3
:1016F0007FF457AF0A2002F019FB12210095022354
:10170000ADF80C1003AA217C204601F091FC0028C2
:101710007FF447AF0A2002F009FB0122092120468D
:10172000FFF708FF003818BF01203BE7F0B5102392
:1017300087B0234C012200250126002702A920465C
:101740000195CDE902234FF48052CDE9046709F0F9
:101750009BFD642003F0ECFA02A94FF4805220466E
:10176000CDE9046702261027CDE9026709F08CFD58
:101770000322102302A92046CDE9022300230422DC
:10178000CDE904234FF4805209F07EFD40F232236C
:10179000042202A9019310232046CDE90223019AD5
:1017A000012305924FF48052049309F06DFD40F639
:1017B0000601204609F088FD284607B0F0BD00BFAD
:1017C0001C9900241C4B00221C494FF0400C30B5E2
:1017D000054689B00220596007219A601A620124E7
:1017E000DA620A224FF4006EDC6006922022CDE914
:1017F000000104200821CDE9020103201021CDE9D8
:10180000040108206946C3E904024FF4C072181DA0
:10181000C3E906C24FF48052C3E909E209F00AFDA8
:1018200038B92846FFF782FF003818BF012009B0F9
:1018300030BD204609B030BD189900244041005207
:10184000614A0021D0B513688EB00A91002B40F098
:10185000B9805E4B01214FF683700C241160022188
:10186000D3F8D4200026032742F48052C3F8D420B2
:10187000D3F8D42002F480520092009AD3F8E020EA
:1018800042F01002C3F8E020D3F8E02002F010028A
:101890000192019AD3F8E02042F04002C3F8E02020
:1018A000D3F8E02002F040020292029AD3F8E0203E
:1018B00042F00802C3F8E020D3F8E02002F008026A
:1018C0000392039AD3F8E02042F48072C3F8E02038
:1018D000D3F8E02002F480720492049AD3F8E02056
:1018E00042F08002C3F8E020D3F8E02002F080024A
:1018F0000592059AD3F8E02042F02002C3F8E020D8
:10190000D3F8E02002F020020692069AD3F8E020F5
:1019100042F00402C3F8E020D3F8E0300C9403F066
:10192000040307930323079A0B93CDE9080108A941
:10193000274805F083F848F23712022308A9254802
:101940000C94CDE90823CDE90A6705F077F84CF24D
:101950000372022308A920480C94CDE90823CDE99D
:101960000A6705F06BF840F2FF62022308A91B48E2
:101970000C94CDE90823CDE90A6705F05FF84FF62E
:101980000C72022308A916480C94CDE90823CDE96E
:101990000A6705F053F84FF63F02022308A91148E1
:1019A0000C94CDE90823CDE90A6705F047F8202219
:1019B000022308A90A480C94CDE90A67CDE9082357
:1019C00005F03CF80EB0D0BD149900240044025834
:1019D0000010025800180258000C0258002002584B
:1019E000001C02580014025830B5184C154685B03A
:1019F000046004F1080EEC460FC98EE80F00D4ED28
:101A0000047AF5EEC07A8CE80F00F1EE10FA1ADDD8
:101A1000B7EE006A94ED057A27EE277AC6EE276ABC
:101A200084ED0D7AC4ED0C6A6DB1204640F8185F64
:101A300002F0B6F8064903690020064A2162A26254
:101A4000E36005B030BD012005B030BD50990024E1
:101A5000002000300000003000680830704700BFF0
:101A60000068183002F09EB810B4074B4FF07E515A
:101A700030240022032019619C60D8605DF8044B7B
:101A80005961C3E90622704750990024704700BF8E
:101A9000F8B5134F3C687F2C07D98023114A42F2D6
:101AA00024411C463B60A2F87E100F4D2B68012B91
:101AB0000AD90C4E0D4D22463146284600F036F923
:101AC0000028F8D13860F8BD22460649074800F0E2
:101AD0002DF90028F7D12B68386001332B60F8BD51
:101AE0008C9900249099002488990024109A00244D
:101AF00010B5084C02460B46074821680844C1F15E
:101B0000800111F00BF8236818442060FFF7C0FF34
:101B100010BD00BF8C990024909900240FB400B52B
:101B200083B004A951F8040B0191FFF7E1FF03B062
:101B30005DF804EB04B0704730B4154C2168F1B186
:101B40004B1E144DE81810F801298C4619460A2A34
:101B500001D00D2A02D14BB1013BF4E70CF1020395
:101B60007F2B10D98023236030BC704701220223D1
:101B700023600D200A236854AB5430BC7047012207
:101B80000223044DF4E70CF101026146F0E700BFC7
:101B90008C9900249099002410B5094C02460B46FC
:101BA000084821680844C1F1800110F0B7FF23689C
:101BB00018442060FFF7C0FFFFF76AFF10BD00BFA9
:101BC0008C990024909900240FB400B583B004A927
:101BD00051F8040B0191FFF7DFFF03B05DF804EB50
:101BE00004B07047064A0749074808B510F034F8B2
:101BF000034A04490548BDE8084010F02DB800BF6D
:101C0000000000248D1A0008109A0024149A002461
:101C100000220A2302700371704700BF704700BFA3
:101C2000012910B506D0022915D051B1BDE81040E8
:101C300006F0E6BD0A46344834490AF0D5FDE8B15D
:101C4000FEE7334B0A46334C334934481C600AF0F4
:101C5000CBFD68B1FEE701222C492B480AF0C4FDF8
:101C600000B1FEE72E4928480AF0E0FDC0B1FEE7CA
:101C70002B492A480AF0DAFD60B1FEE728492248DC
:101C80000AF0D4FD00B1FEE726491F480AF05CFDCA
:101C900008B3FEE7244921480AF056FDA8B1FEE743
:101CA000204919480AF050FD00B1FEE716480AF035
:101CB000D3FD024640B9164B164C174917481C6015
:101CC0000AF092FD68B1FEE7FEE714480AF0C4FD91
:101CD0000028ABD0FEE70C480AF0BEFD0028A5D0D6
:101CE000FEE70F490D480AF0A1FD00B1FEE70E49DD
:101CF0000A480AF029FD00B1FEE708480AF0ACFDE9
:101D0000002893D0FEE700BFB49C0024A800002464
:101D1000509F00241D1C00088C000024189A0024E9
:101D2000100100246C0000245C000024084691B2DD
:101D300008B502F0D7FA003818BF012008BD00BF6F
:101D4000084691B208B502F0E3FA003818BF012046
:101D500008BD00BF10B50B4B012A0B4C084619609B
:101D6000216006D0022A01D03AB110BD02F0E6FA95
:101D70002068BDE8104002F0E7BABDE8104002F06C
:101D8000DDBA00BF509F0024549F0024014806F094
:101D900015B800BF90D20024014806F00FB800BF6C
:101DA00090D20024014806F009B800BF90D2002468
:101DB000704700BFF0B50B7803F0F004F02C28D08A
:101DC00003F0E004C02C14D1022A11D1D0F8142859
:101DD0001B09841884F814340B7884F81534002314
:101DE000497884F81614043284F81734C0F814289B
:101DF000F0BD032AFCD1D0F814281B09841884F8FC
:101E000014340B7884F815344B7884F816348B78B6
:101E1000E9E7F22B2DD003F0FD04F12C13D1022AB7
:101E2000E6D1D0F814380025C418043384F81424FB
:101E30000A7884F815244A7884F8175484F816240C
:101E4000C0F81438F0BDF32B32D9012AD0D1D0F824
:101E5000143805250024C218043382F81454097874
:101E600082F8164482F8174482F81514C0F8143822
:101E7000F0BD032ABCD1D0F81438C418043384F858
:101E800014240D7884F815544D7884F816548D7800
:101E900084F81754C0F814380B7803F0FD04F12CC3
:101EA000A6D0F32BA4D80025D0F81448AE4624E0E1
:101EB000032AF8D9D0F814388C460325C0F104075A
:101EC0000344042683F81464AE469CF800400CF1E9
:101ED000030C83F815441CF8024C83F81644FC18D4
:101EE0001CF8015C043383F813540EF10305C0F8A9
:101EF0001448AA42E6D85FFA8EF5131D7245A3EB8B
:101F0000050300EB040585F8143404F10105C0F85D
:101F1000145817D904F2154302F1FF3C0EF1FF34B7
:101F20008C4403440C441049091A14F8016F03F857
:101F3000016B644501EB0306C0F81468F5D1A5EB0D
:101F40000E051544AE073FF453AF05F2144306499E
:101F500000240344091A03F8014BCA189507FAD163
:101F6000C0F81428F0BD00BFECFBFFFF2DE9F041E5
:101F7000064690F80280F2B1002015460F46441C38
:101F8000A54216D939180B4602E00134A54210D9F2
:101F900013F901CFBCF1000FF7DAA04209D0221AE1
:101FA0003046FFF707FFA54205D92046441CA5424D
:101FB000E8D82D1A27D1737806F214443046D6F8A3
:101FC0001428012B214613D0FFF7B0FE03466420EE
:101FD000012B13D1B8F1000F10D001F0A9FE7378D6
:101FE00008F1FF382146012B3046D6F81428EBD1F2
:101FF000FFF7A6FE03466420012BEBD00023C6F8B2
:102000001438BDE8F08139182A463046FFF7D2FE71
:10201000D1E700BF30B5D0F80C44ADF2044D3CB36D
:10202000D0F80824D0F804349A4224D0EC46002199
:10203000E6460131D0F80834D0F804249B1AC3F3E3
:102040000903002BF6D0D0F804345A1C0344C2F321
:1020500009021D79C0F80424D0F80824D0F804340B
:102060000EF8015B9A42E4D1D0F810246046A047F4
:102070000DF2044D30BD0021EC46F5E7F8B5254CD6
:10208000E378002B43D00B680E46002B3FD0002195
:1020900005460F465B1A032B30D96B5C294413F0BD
:1020A0000E0F2BD003F00F03234493F818382BB3F3
:1020B000013B481C50FA83F0D4F80434D4F80824C7
:1020C000013B9B1AC3F3090313B311F801CFD4F8F2
:1020D0000434D4F80824013B9B1AC3F30903002BF2
:1020E000F5D0D4F80834814203F101022344C2F34D
:1020F000090283F804C0C4F80824DDD1043720465F
:10210000FFF788FF3368BFB29F423946C2D3F8BD9C
:10211000E370F3E75C9F0024CAB2114BA2F1010205
:1021200010B5B2FA82F282B00E4C5209ADF804102A
:1021300004600120A4F80110114618702046009296
:10214000FFF76EFD00230A20E37001F0EFFD009A17
:102150002046054902B0BDE81040FFF7FBBD00BFB7
:10216000589F00245C9F00247D2000080068FFF732
:10217000FDBE00BF30B54FF44072114C114BA4F8B6
:10218000012004F61805104A03F1100E04F6280C7D
:10219000C4F838284FF60F02A4F83C28072284F828
:1021A0003E280FCB85E80F009EE80F008CE80F005B
:1021B0002046064A0649BDE830400FF04DBD00BF3D
:1021C0005C9F0024C83D010880707FF0000000245F
:1021D000B11D000800B583B04FF0000E4FF0030CA6
:1021E0004274ADF80410BDF8043080F810E0A0F897
:1021F00002C0038003B05DF804FB00BF2DE9F04F7F
:10220000DFF81C8300258DB0C04C037008F140033B
:102210004260074601920E46202229464046C4F8F5
:102220006831C4F86481CDE90255CDE90455CDE9A2
:102230000655CDE90855CDE90A5510F09BFA202244
:10224000294604F5A170C4F83151C4F83551C4F8D9
:102250003951C4F83D5110F08DFA019B84F8485271
:1022600084F830317A68002A6AD02B4604F59871D8
:10227000454606F1100A9E46F01856F803B0E218DB
:102280000EF1010ED0F80CC0D0F80490D0F8088000
:1022900044F803B0C2F80CC04FF0000CC2F8049030
:1022A000C2F80880008A25F802CB10821AF80320B1
:1022B00001F8012F002A70D07A684FF00100123324
:1022C000724584F84802D7D84FF4802290489DF890
:1022D000043008214FF000084FF00009C4F88431A1
:1022E0000023C4E95B020122C4F8743184F8803110
:1022F000C4E95E2194F84812C4E96489A9B3C4F81A
:102300009821002284F8813184F888313B78C4E92F
:102310006722002B38D0012200200121013B84F8E4
:10232000A421C4E96C01082B30D8DFE813F0BD000C
:10233000C200C700CC00D100D600DB00E100E800FD
:102340009DF804300121C4F87421C4F884314FF49D
:10235000802384F880216E4AC4E95B23082300228D
:10236000C4E95E130023C4E964230123002284F836
:102370008131002384F888310323C4F898313B78F5
:10238000C4E96722002BC6D184F8A431614803F068
:1023900007F9034638B1FFBEFEE77A68123372458B
:1023A0003FF66AAF90E702A95A48029303F056FA43
:1023B0008246002876D1042240F2FF710A90CDE9CE
:1023C000081294F83021002A00F0F3804FF006083C
:1023D0000AEBCA034FEACA0904EB43035B7C072BF1
:1023E00007D8DFE803F0595C5653504D4A040723E1
:1023F00007930FFA8AF6D14406EBC60604EB4909A7
:1024000004EB46077500384600F020FB99F81030C1
:10241000042B00F3AA80022B00F3BD8000F0B980EA
:1024200004EB0A03002283F8202114F81630002B55
:1024300078D0022B00F08A80012B40F0B2807B78AC
:10244000012B00F0B080002B334B18BF002305A9EF
:102450003048CDE9053802F0CFFC002840F0AC80D0
:102460000AF1010A94F830315FFA8AFA534540F2D2
:10247000A0802A4B53F82A80AAE706230793B8E7DF
:1024800005230793B5E704230793B2E703230793D4
:10249000AFE702230793ACE700230793A9E70123E3
:1024A0000793A6E7FFBEFEE703224023C4E96A23A1
:1024B0006CE707226023C4E96A2367E70F228023C1
:1024C000C4E96A2362E71F22A023C4E96A235DE707
:1024D0003F22C023C4E96A2358E77F22E023C4E9EE
:1024E0006A2353E7FF224FF48073C4E96A234DE760
:1024F00040F2FF124FF49073C4E96A2346E740F2BA
:10250000FF324FF4A073C4E96A233FE7A0A7002479
:10251000002002400CA900240002B025D03F010891
:10252000004000307B78062B37D0072B3DD0022BA4
:102530004AD0032B4AD0002B4CD0012B48D0042B7F
:102540004AD0052B254B18BF002380E77B78042B4E
:1025500025D0052B2BD08BB3012B31D0022B31D0C2
:10256000032B1F4B18BF002371E70323043504EB33
:102570000A0B4FF0000925448BF82031284609F159
:10258000010900F063FA9BF8203104354B45F5DC76
:102590004BE70123EAE70223E8E7124B57E7124B28
:1025A00055E7002353E7114B51E7114B4FE7114B10
:1025B0004DE70DB0BDE8F08FFFBEFEE70E4B46E7DE
:1025C0000E4B44E70E4B42E70E4B40E70E4B3EE707
:1025D0000E4B3CE70E4B3AE70E4B38E70000B84F86
:1025E000002090360800900C1000C0102000F0145D
:1025F0008000501D000180210004002A0008302EB8
:10260000001060320040C03A0080F03E00005247A7
:10261000000021430000844B38B5094C40F2FF72A2
:102620004FF0011104F5B675284603F0C5F894F88B
:102630003021D4F864112846BDE8384002F030BE9D
:10264000A0A70024064B0F29D3F8643198BF03EBF1
:1026500041031B8800EE103ABBEEC80A704700BF6A
:10266000A0A70024214B02689A4200D07047204A5C
:1026700000232048D2F8D81030B51F4C41F020017B
:1026800083B0C4F8D001092004F5E875C4E97503E6
:102690004FF48060C2F8D810D2F8D8204FF400610F
:1026A000C4E9773094F8480202F02002C4F8E4113B
:1026B0004FF40051984201922846C4F8E811C4E949
:1026C0007C33019B14BF00234FF48073C4F8EC31BA
:1026D00003F0EAFA08B1FFBEFEE704F5B673C4F8EA
:1026E000B851C4F8083203B030BD00BF002002402A
:1026F0000044025840000240A0A70024014803F013
:102700004BBE00BF70A9002402682DE9F84F4B4B67
:102710009A4201D0BDE8F88F494D95F84832002B18
:10272000F8D095F83031002B77D0002405F10C0952
:1027300005F5A17605F59877A04613E003F00101B1
:1027400017F811BCA9F1080000F05CFABBF1010F09
:1027500025D895F83031013409F112090236A2B2B8
:1027600093422BD917F8012F002AF4D0D5F8643101
:102770000021327833F81400D5F8683103EB0413E4
:1027800023F81200338801339BB233805FFA83FA57
:102790003A789A42D2D88A46A6F80080D0E7CAF39F
:1027A0004001A9F1040000F02DFABBF1020FCAF3B9
:1027B0008001CED0484600F025FACAE7002395F8FC
:1027C0004802204909229842C5F8D8314FF4806068
:1027D000C5F8D011C5F8D4214FF400614FF4005270
:1027E000C5F8DC3108BF4FF48073C5F8E821C5E9AE
:1027F000780100221448C5E97B32C5F8F42103F0C2
:1028000053FA08B1FFBEFEE795F83021D5F8641100
:102810000E48BDE8F84F02F043BD0A4909224FF4C3
:102820008060C5F8D831C5E974124FF400614FF4E7
:102830000052C5E97730C5E97912DAE70020024095
:10284000A0A700244000024070A900240CA9002485
:10285000704700BF10B592B0ADF804100180C9B246
:10286000149C0B29C460C0E901233FD090F801C03B
:10287000BCF10F0F3AD8022A3FD0032A02D0012A16
:1028800000D000220E92012B02D0022B18BF002391
:10289000022C0F932CD0032C2AD0012C28D00023FB
:1028A0000A29109327D85C4A02EB812202610A2987
:1028B00014D8DFE801F0A39587796B5D4F4133258C
:1028C0000600564BD3F8E01041F48061C3F8E010E5
:1028D000D3F8E03003F480630C930C9B01230DA923
:1028E000104603FA0CF30D9304F0A8F812B010BDD3
:1028F0000A291094D7D90022D8E711220E92C2E7F4
:10290000464BD3F8E01041F40071C3F8E010D3F85F
:10291000E03003F400730B930B9BDFE73F4BD3F8DE
:10292000E01041F48071C3F8E010D3F8E03003F414
:1029300080730A930A9BD1E7384BD3F8E01041F03B
:102940008001C3F8E010D3F8E03003F0800309936E
:10295000099BC3E7314BD3F8E01041F04001C3F8C5
:10296000E010D3F8E03003F040030893089BB5E78C
:102970002A4BD3F8E01041F02001C3F8E010D3F85F
:10298000E03003F020030793079BA7E7234BD3F81E
:10299000E01041F01001C3F8E010D3F8E03003F08C
:1029A00010030693069B99E71C4BD3F8E01041F007
:1029B0000801C3F8E010D3F8E03003F008030593F2
:1029C000059B8BE7154BD3F8E01041F00401C3F8E9
:1029D000E010D3F8E03003F004030493049B7DE798
:1029E0000E4BD3F8E01041F00201C3F8E010D3F829
:1029F000E03003F002030393039B6FE7074BD3F828
:102A0000E01041F00101C3F8E010D3F8E03003F02A
:102A100001030293029B61E7000002580044025840
:102A200008B5012143780069994089B204F00EFA93
:102A3000003818BF012008BD01230A46417800690B
:102A400003FA01F189B204F007BA00BF8378022BC0
:102A500030B504468FB037D0032B33D0012B31D0A3
:102A600000230A93E378012B2AD0022B28D00023DD
:102A70000B93002320460C9302F038F805462046BD
:102A800002F03CF823780990082B13D8DFE803F014
:102A90001F3245586B7E91A40500594BD3F8E020B6
:102AA00042F48072C3F8E020D3F8E03003F480737E
:102AB0000893089B09A9284603F0C0FF0FB030BD5A
:102AC0000B93D6E70A93CDE711230A93CAE74C4B41
:102AD00009A92846D3F8E02042F00102C3F8E0201B
:102AE000D3F8E03003F001030093009B03F0A6FF4E
:102AF0000FB030BD424B09A92846D3F8E02042F080
:102B00000202C3F8E020D3F8E03003F0020301939F
:102B1000019B03F093FF0FB030BD394B09A9284644
:102B2000D3F8E02042F00402C3F8E020D3F8E0300C
:102B300003F004030293029B03F080FF0FB030BD4B
:102B40002F4B09A92846D3F8E02042F00802C3F829
:102B5000E020D3F8E03003F008030393039B03F075
:102B60006DFF0FB030BD264B09A92846D3F8E020F1
:102B700042F01002C3F8E020D3F8E03003F0100375
:102B80000493049B03F05AFF0FB030BD1C4B09A9FE
:102B90002846D3F8E02042F02002C3F8E020D3F822
:102BA000E03003F020030593059B03F047FF0FB0CF
:102BB00030BD134B09A92846D3F8E02042F040026B
:102BC000C3F8E020D3F8E03003F040030693069BFF
:102BD00003F034FF0FB030BD094B09A92846D3F8E4
:102BE000E02042F08002C3F8E020D3F8E03003F0A8
:102BF00080030793079B03F021FF0FB030BD00BF98
:102C00000044025870B506460D4601F06FFF0446B9
:102C1000304601F073FF2A1E0146204618BF0122EC
:102C2000BDE8704004F018B90023122270B586B0D8
:102C3000CDE9022304930368032B01D804230593F1
:102C4000061D841D304601F051FF0546304601F057
:102C500055FF034601A92846019303F0EFFE2046E5
:102C600001F044FF034620461C4601F047FF01A93E
:102C700003462046019303F0E1FE06B070BD00BF9D
:102C8000634A0368934210B58CB028D0614A9342DE
:102C900058D0614A934200F09480604A934201D038
:102CA0000CB010BD5E4C5F48D4F8E03043F0020336
:102CB000C4F8E030D4F8E03003F002030A930A9B32
:102CC000FFF7B2FFD4F8F43043F08003C4F8F430D7
:102CD000D4F8F43003F080030B930B9BE0E7504CE7
:102CE0005148D4F8E03043F00203C4F8E030D4F89F
:102CF000E03003F002030193019BFFF795FFD4F846
:102D0000E83000221F2043F400131146C4F8E830D5
:102D1000D4F8E83003F400130293029BD4F8D830BF
:102D200043F00103C4F8D830D4F8D83003F00103DD
:102D30000393039B02F006FE1F200CB0BDE8104079
:102D400002F03EBE364C3948D4F8E03043F0800300
:102D5000C4F8E030D4F8E03003F080030493049B1F
:102D6000D4F8E03043F00203C4F8E030D4F8E030A7
:102D700003F002030593059BFFF756FFD4F8E830F4
:102D80000022212043F480031146C4F8E830D4F82F
:102D9000E83003F480030693069BD4F8D83043F060
:102DA0000103C4F8D830D4F8D83003F001030793F6
:102DB000079B02F0C7FD21200CB0BDE8104002F0D7
:102DC000FFBD1B48FFF730FF154B00224820D3F80A
:102DD000E840114644F40004C3F8E840D3F8E84062
:102DE00004F400040894089CD3F8D84044F001048B
:102DF000C3F8D840D3F8D83003F001030993099BF6
:102E000002F0A0FD48200CB0BDE8104002F0D8BD93
:102E10000054004000580040005C0040001C005876
:102E20000044025878AC0024F0A90024C8AA002469
:102E3000A0AB00242DE9F0431A4B87B000254FF0DA
:102E400010099E46EC46184BFF22E04667461A7072
:102E50000EF118060EF13004CDE90055CDE902550A
:102E6000ADF80090BCE80F00CDE90455AEE80F00C6
:102E70009CE803000095ADF800908EE80300B8E8E8
:102E80000F000FC69CE803000095ADF8009086E89F
:102E900003000FCF0FC49CE8030084E8030007B0D1
:102EA000BDE8F0830C000024ECA9002410B5EFF37A
:102EB000108472B6084B1A78120602D504B962B6AD
:102EC00010BD1B78D82205485BB202FB030014300A
:102ED00003F062FAF2E700BFECA90024F0A9002495
:102EE000014804F051BE00BF7CAA0024014804F050
:102EF0004BBE00BF54AB0024014804F045BE00BFE8
:102F00002CAC00242DE9F0430F68D8243F4D85B048
:102F100007FB04F4032F05EB0403036040DCCB68DC
:102F20000E46012B3CD84DD04FF0D808B646DFF8FE
:102F3000FC9008FB0758BEE80F00C446ACE80F0041
:102F4000DEF800300DF1100ECCF80030D8F808C0D3
:102F500099E80F000EE90F000EEB8703BCF1010F9B
:102F600053F8103CC8F88C3031D0BCF1020F42D07D
:102F7000BCF1000F35D0317C8C34D82300220120E5
:102F80002C4403FB07534900C3E92602C3F89410FD
:102F90002046C3E92822C3E92A2204F0E7FB18B13E
:102FA000012005B0BDE8F0830146204604F0F8FD9D
:102FB0000028F5D10146204604F01CFE003818BF59
:102FC0000120EEE70B7C103B672BADD9E8E701F061
:102FD0004DF80F4B98420CBF0E4B0F4BC8F890307A
:102FE000C9E701F043F80A4B98420CBF0B4B0C4B5E
:102FF000C8F89030BFE701F039F8054B98420CBF94
:10300000084B094BC8F89030B5E700BFF0A9002481
:10301000000E27072D0FB0303211D0205F43906093
:103020008A62E030200BA0101A098010E83D0108E8
:103030002DE9F041D0F8008082B00D4617461E46BB
:1030400008F18C04204604F0A7FD2028FAD1D8F816
:103050000C3073B96D002046089C33463A46A9B23D
:10306000009404F0D9FB003818BF012002B0BDE87D
:10307000F081089B32463946204604F0A1FCF2E775
:10308000044B10221A7483F8E82083F8C02183F8D7
:1030900098227047F0A9002430B5002395B04FF472
:1030A0008071062204460B9306921393CDE90C130C
:1030B000CDE90E33CDE9113300F0DAFF07282BD02C
:1030C00004F1100541F2883206A9284605F0E4FC17
:1030D00028B10123184684F85C3015B030BD0222B7
:1030E000022306A92846CDE9002310220123CDE9B9
:1030F000022300224FF48003CDE9042305224FF080
:10310000807306926A460F9341F2883305F030FED1
:103110000028DED115B030BD0323012084F85C30D7
:1031200015B030BD0000000070B50023A4B04FF012
:1031300080724FF480750446ADF806300D93CDE9EA
:1031400010320122CDE90E53CDE91223CDE914331B
:10315000002943D0F02300F1100508AEADF8063089
:10316000C02341F2883231462846089305F094FC8A
:1031700028B10123184684F85C3024B070BD41F2B8
:1031800088320DF10601284605F0F0FC03460028C0
:10319000EFD105224FF480711E93284616924FF00E
:1031A00080721B9321931F9202AA9FED1F7BCDE992
:1031B0001C13CDE922338DED027B9FED1D7B41F287
:1031C000883316A98DED047B9FED1B7B8DED067B6F
:1031D00005F0CEFD0028CCD124B070BD00F1100563
:1031E00008AE612341F2883231462846089305F043
:1031F00053FC0028BDD141F288320DF1060128466A
:1032000005F032FD0028B4D1BDF80630204623F089
:10321000780343F04003ADF80630FFF73DFF002888
:103220009ED0A6E7AFF30080000000000100000080
:10323000100000000100000000000000000040003D
:103240002DE9F04F00234FF4807501264FF0807870
:1032500004462DED028BABB08DF80730139321930C
:10326000299314950E96CDF85C80CDE91533CDE900
:103270001863CDE91A33CDE92253CDE92433CDE9E2
:10328000273306231C9300F0F3FE072808D004F12F
:10329000100741F288321CA9384605F0FDFB40B109
:1032A0000123184684F85C302BB0BDEC028BBDE8DE
:1032B000F08F4FF0020A4FF0020B4FF0050941F278
:1032C000883308AA1CA93846CDF89480CDF87090B0
:1032D0009FED2D8BCDE908AB4FF0000A4FF4800B2A
:1032E0008DED0A8BCDE90CAB05F042FD0028D7D15E
:1032F00041F2883238460EA905F0CEFB0028CFD126
:10330000402341F288320DF1070138468DF807302D
:1033100005F02CFC0028C3D141F288330EA902AA83
:103320003846CDF83890CDF85C809FED197B8DED57
:10333000048BCDE906AB8DED027B05F019FD03464C
:103340000028ADD1CDF870904FF00109CDF89480F0
:103350004FF00008219308AA29931CA9384622950A
:10336000CDE92333CDE9273341F288338DED0A8B44
:10337000CDE90CABCDE9088905F0FAFC002893D023
:10338000304684F85C608FE7100000000100000008
:1033900040000000400000002DE9F043624CA3B063
:1033A0000D46046000F064FE072800F0A98028683C
:1033B00023466968AA6807C31E46AB8926F8043B02
:1033C0003046257B677B05F049FBE0B9574B012D63
:1033D0004FF00108E061236114BF4FF480134FF4F4
:1033E0000003C4E9058893FAA3F3B3FA83F34FF417
:1033F0008079013BC4F82490C4E90B003046236275
:1034000005F0C0FA38B10122134684F85C20184652
:1034100023B0BDE8F08366230B90139041F288320D
:1034200006A90693CDE90C90CDE90E00CDE9110077
:10343000304605F031FB0028E5D1992341F288326E
:1034400006A93046069305F027FB0028DBD10523AB
:103450001C9019906A4614934FF08073219014A920
:103460001D9341F288339FED2A7BCDE91A90CDE977
:103470001F008DED007B9FED287B30468DED027B9C
:103480009FED277B8DED047B05F072FC0028BAD1FF
:1034900029462046FFF748FE0028B4D12046FFF712
:1034A000CFFE03460028AED1002FB0D1189330468E
:1034B0000027002606AA14A9CDF86890CDE91F338D
:1034C000EB2314934FF440631B934FF40053179373
:1034D0004FF440431C93A0231693062319934FF0F7
:1034E000805321934FF04073CDE906671D9305F09B
:1034F000B7FC034600288AD0434684F85C8086E700
:1035000001230322184684F85C2023B0BDE8F08331
:103510000000000001000000100000000100000099
:10352000000000000000400050AD00240050005298
:103530002DE9F04F8FB0414B0024026800AF9A4252
:103540007C63C7E90944C7E90B4403D03C37BD4657
:10355000BDE8F08F3A4B40F609213A48EB46D3F8E4
:10356000D42007F11C0607F1220A4FF0020942F4A9
:1035700080424FF00308C3F8D420D3F8D42002F4DB
:103580008042BA60BA68D3F8E02042F04002C3F843
:10359000E020D3F8E02002F04002FA60FA68D3F8A5
:1035A000E02042F02002C3F8E020D3F8E02002F04F
:1035B00020023A613A69D3F8E02042F01002C3F8E1
:1035C000E020D3F8E02002F010027A617A69D3F8A3
:1035D000E02042F00202C3F8E020D3F8E030F861C6
:1035E00003F002033984BB61174B7B60BB697B68C6
:1035F00053F8040F7B6001F079FA7B680546186880
:1036000001F07CFA16F8013B786207F124012846A4
:10361000C7F830807B63C7E90A9403F00FFA564578
:10362000E5D100225C20114602F08CF95C2002F00A
:10363000C7F93C37DD46BD46BDE8F08F005000526B
:10364000004402580A0A0909ACAD0024114B026873
:103650009A4200D07047104A70B5D2F8D4300F4C5F
:1036600023F4804304F11806C2F8D43054F8040F50
:1036700001F03CFA0546206801F040FA0146284670
:1036800003F01CFBB442F1D15C20BDE8704002F0B5
:10369000A5B900BF0050005200440258ACAD002450
:1036A000014805F069BC00BF60AD0024084B1A1D3D
:1036B000981D03F1080110B49C1C9A6603F10A02DC
:1036C000C3E91834C3E91B015DF8044B5A6770471E
:1036D00050AD002438B5036871B9026A00F12805BD
:1036E00000F5AC74012A0CBF002140218BBB1D4B9F
:1036F0005722C0F858310DE0426A00F1C00500F5CC
:10370000E874012A0CBF00214021EBB1164B5A226C
:10371000C0F8D03100232046C4E901214FF4805283
:103720004FF48061636262614FF48042C4E9033107
:103730004FF48073C4E906234FF40033236202F090
:10374000B3FA58B1FFBEFEE7084B5822C0F8D0319B
:10375000E0E7074B5922C0F85831DBE7C5E92044C0
:10376000A56338BD100002407000024028000240EE
:10377000580002402DE9F043821D05468BB0031D21
:1037800005F10A010830CDE9052305F10C02AB690A
:10379000CDE907010992002B3DD0EB69B3FA83F81C
:1037A0004FEA58180123022205AE0AAF4FF006096E
:1037B0000393CDE9012356F8044B2B7922789342E9
:1037C00016D02B68F3B1012B02D1F2B10A23049376
:1037D000204601F093F903462046009301F086F954
:1037E000694603F02BF9BE42E5D10BB0BDE8F0838A
:1037F000697963789942E4D1B8F1000FF3D02B686E
:10380000002BE0D1CDF81090E2E76378022B14BFD3
:103810000A230823DBE74FF00108C3E7534A036894
:10382000934230B505468BB055D02032934252D0EA
:103830004F4A934204D02032934201D00BB030BDA6
:103840004C4C4D48D4F8E03043F00103C4F8E0306C
:10385000D4F8E03003F001030593059BD4F8E03081
:1038600043F00803C4F8E030D4F8E03003F0080374
:103870000693069BD4F8E03043F04003C4F8E030F0
:10388000D4F8E03003F040030793079BD4F8F030FE
:1038900043F40003C4F8F030D4F8F03003F400032C
:1038A0000893089BFFF766FFD4F8D830296843F0E7
:1038B00001032F4A3048C4F8D830891AD4F8D830D8
:1038C00018BF012103F001030993099B0BB0BDE868
:1038D0003040FFF7FFBE274C2848D4F8E03043F0D3
:1038E0000103C4F8E030D4F8E03003F001030093A2
:1038F000009BD4F8E03043F01003C4F8E030D4F873
:10390000E03003F010030193019BD4F8E03043F062
:103910004003C4F8E030D4F8E03003F040030293F1
:10392000029BD4F8F03043F48003C4F8F030D4F8AC
:10393000F03003F480030393039BFFF71BFFD4F8DD
:10394000D830296843F00103084A0C48C4F8D8303D
:10395000891AD4F8D83018BF012103F00103049369
:10396000049B0BB0BDE83040FFF7B4BE04580140E3
:10397000045C01400044025824B00024C8AD002477
:10398000014802F009BD00BF20AF0024014802F049
:1039900003BD00BF98AF0024014802F0FDBC00BF8A
:1039A0007CB10024014802F0F7BC00BFF4B1002450
:1039B0002DE9F04F0C684FF41776754F87B004FB74
:1039C00006F6012C07EB060AC0F800A000F3A08061
:1039D0000D468E464FF00008D44669A3D3E9002374
:1039E00069A1D1E90001CDE9022306ABCAF85082F2
:1039F00003EB8403CDE9040153F810BC53F8083CF1
:103A0000CAE992880193BEE80F00ACE80F00BEE857
:103A10000F00ACE80F00019B9EE80300CAF828B035
:103A2000CAF8C0308CE803002B69042B0CD8DFE8FF
:103A300003F0737D879103004FF41773554A03FB1E
:103A400004739A64C3F8E020AA692B6A002A43D061
:103A5000002B4FF4177308BF022203FB047318BF37
:103A60000322DA6201221A63EA696B6A002A40D1F2
:103A7000191E4FF4177318BF012103FB0473C3E928
:103A800031126B69022B05D8434A12F80380434A6E
:103A900052F823904FF4177306F128004246494626
:103AA00003FB04740023384463646363E365C4F870
:103AB000DC30C4F8CC30C4F8F430C4E90F33C4E9C6
:103AC0001533C4E93533C4E93B33022307F0F6FA72
:103AD000002849D0FFBEFEE7191E4FF4177318BF28
:103AE000012103FB0473C3E90B12EA696B6A002A24
:103AF000BED0002B4FF4177308BF022203FB0473E0
:103B000018BF0322C3F8C4200122C3F8C820B8E7B5
:103B1000012007B0BDE8F08F4FF417734FF4FA524D
:103B200003FB04739A64C3F8E0208DE74FF4177326
:103B30004FF47A5203FB04739A64C3F8E02083E7DE
:103B40004FF417734FF4FA4203FB04739A64C3F8FB
:103B5000E02079E74FF417734BF6803203FB0473D0
:103B60009A64C3F8E0206FE706F1C00002234246E2
:103B70004946384407F0A2FA0028CAD0FFBEFEE743
:103B800004580140045C014024580140245C014079
:103B9000C8AD00240077010010400108144001085E
:103BA0000068704703681B69042B05D8044A02EBC0
:103BB000830393ED000A70479FED020A704700BF30
:103BC0002040010800803B47704700BF08B501F066
:103BD0009DF8BDE8084001F07DBF00BF064808B56C
:103BE00003680BB103F03CF9044803681BB1BDE85E
:103BF000084004F0E3B808BDA0DC002498D60024F7
:103C0000064808B503680BB103F02AF904480368B5
:103C10001BB1BDE8084004F0D1B808BDA0DC002409
:103C200098D60024064808B503680BB103F018F9CC
:103C3000044803681BB1BDE8084004F0BFB808BDE4
:103C4000A0DC002498D60024364BDA6A520062D5F4
:103C50009A6A9A6A9A6A9B6A180600D500BE314B26
:103C60009B6A990600D500BE2E4B9B6ADA0600D5EA
:103C700000BE2C4B9B6A1B0700D500BE294B9B6ADC
:103C8000980700D500BE274B9B6AD90700D500BE18
:103C9000244B9B6A1A0400D500BE224B9B6A9B04EE
:103CA00000D500BE1F4B9B6AD80400D500BE1D4B3B
:103CB0009B6A190500D500BE1A4B9B6A5A0500D5B0
:103CC00000BE184B9B6A9B0500D500BE154B9B6A36
:103CD000D80500D500BE134B9B6A990100D500BEE4
:103CE000104B9B6ADA0100D500BE0E4B9B6A1B038A
:103CF00000D500BE0B4B9B6A580300D500BE094B94
:103D00009B6A990300D500BE064B9B6ADA0306D472
:103D100000BE00BEFEE7DB6A9B07FAD5F8E700BEEF
:103D2000F6E700BF00ED00E000F0FCBF01F000B8D6
:103D3000014601480AF06EBA80B200240A4B9B6823
:103D400003F17843B3F5003F0BD3084B986848B1B3
:103D50009868012806D09868022803D09B68032041
:103D600070470120704700BF00ED00E00000803880
:103D70002DE9F041CEB004464C2200210AA80EF0F5
:103D8000F9FC2022002102A80EF0F4FCBC22002144
:103D90001EA80EF0EFFC022004F00CFD2368012B9E
:103DA0004FF0000354D0534A02250193C820D16A32
:103DB000514B21F00101D162D26A02F0010201925D
:103DC0009A6942F440429A619B6903F4404301932B
:103DD000019B494A93699B04FCD54849022400226F
:103DE00001268B6A04274FF0080823F003032343BE
:103DF0008B62052316900AA818934FF4803310960F
:103E0000179419941597CDF86880CDE91B222122CB
:103E1000CDE91344CDE90A2305F0B6F900B1FEE778
:103E20003F220323294602A8CDE9022300220823CA
:103E3000CDE9042340224023CDE9062340234FF45B
:103E40008062CDE9082305F0CDFC0346B8B1FEE75A
:103E5000294A04250093F0209169264B41F4404102
:103E60009161926902F440420092DA6A42F00102E2
:103E7000DA62DB6A03F001030093009BA9E72022CA
:103E80004FF4805125934FF440152B9280222D93AF
:103E90001EA83093269135914FF48071249234926C
:103EA0000C223394439140F2271120921022CDF836
:103EB00084802A971F96CDE92E34CDE93B334FF409
:103EC0008033CDE922463193002446930623CDE981
:103ED0003E4527934FF48063094C2C931E94CDE903
:103EE000281205F0DBFE00B1FEE704F089FC4EB0BD
:103EF000BDE8F08100040058004802580044025810
:103F00000F130F0370B584B0012401F091FD4FF43D
:103F100080764FF04052194B68460025ADF80040BE
:103F20000396CDE9012301F0A1FD19224FF0404392
:103F300068468DF8082001938DF80F40ADF80D60AC
:103F40008DF801408DF80A5001F090FD02230B22FC
:103F500068468DF80F508DF801304FF062538DF8A0
:103F600008200193ADF80D408DF80A4001F07EFD68
:103F7000042001F06BFD04B070BD00BF0E00010312
:103F800030B50D46044685B0D1E9000184E8030050
:103F900000F08CFEAB79A3B30BF048F8FEF74AFFB4
:103FA00009F09EFC0AF044FD2B798BBB6B799BB129
:103FB000BFF34F8FBFF36F8F2A4B0022C3F85022FD
:103FC000BFF34F8FBFF36F8F5A6942F400325A61CB
:103FD000BFF34F8FBFF36F8F4FF0FF3200230024EA
:103FE00000256946204802928DF80C30CDE9004545
:103FF0000AF096F81C480AF0FBF809F0A1F805B0A1
:1040000030BD2046FFF7B4FE2046FFF77BFFC3E735
:10401000144C0023C4F88430BFF34F8FD4F88010C1
:1040200043F6E07EC1F34E3CC1F3C9014FEA4C1C9C
:104030000CEA0E000B4640EA8372013BC4F8602292
:104040005A1CF8D1ACF1200C1CF1200FF0D1BFF3B9
:104050004F8F636943F480336361BFF34F8FBFF3C6
:104060006F8FA3E700ED00E080B2002405F0EABC0A
:104070001C4B9B6803F17842B2F5003F25D3B3F5A2
:10408000803F20D303F16042B2F5003F1FD303F11C
:104090005C42B2F5002F1CD303F17042B2F5902FB1
:1040A00019D303F14842B2F5803F16D303F18042A1
:1040B000B2F1806F13D303F1E043B3F5000F2CBFCF
:1040C0000820072070470120704700207047022019
:1040D0007047032070470420704705207047062072
:1040E000704700BF00ED00E003480023034A044985
:1040F00003600DF0B1BD00BF80B2002400000024B9
:10410000C93B000810B4204C0022204B83B0D4F8E7
:1041100088101F4841F47001C4F8881019681D4CBC
:1041200041F0010119601A61196808401A491860C4
:104130009A61DA611A629A62DA621A635A639A635E
:10414000DA631A645A64186820F4802018601A66CA
:10415000D3F8DC2042F06042C3F8DC20D3F8DC3036
:104160000193019B23681940B1F1005F03D20B4B0F
:104170000122C3F80821044B4FF000629A6003B09B
:104180005DF8044B704700BF00ED00E000440258AA
:104190007FEDF6EA0010005C0000FFFF0080005198
:1041A000704700BF0020704770B50446074E0D46AB
:1041B0003046214608F0DAFA304608F0F9FA044BA6
:1041C000204629461B689847002070BD189A002495
:1041D00084D2002470B50446074E0D463046214671
:1041E00008F0C4FA304608F0E3FA044B20462946AA
:1041F0001B689847002070BDB49C002488D200241E
:1042000000220949094808B508F0A6FA08490748F4
:1042100008F0ACFA074B1A680AB1002008BD064A3C
:1042200000201A6008BD00BF84C20024189A002430
:1042300084B2002484D20024A1410008002209494C
:10424000094808B508F088FA0849074808F08EFAC6
:10425000074B1A680AB1002008BD064A00201A6000
:1042600008BD00BF84CA0024B49C002484BA002482
:1042700088D20024A141000820280AD0212806D194
:10428000094B18689A889B7908608A808B71002096
:104290007047054B0868B1F804C08A79186000209F
:1042A000A3F804C09A7170477C00002420280AD02B
:1042B000212806D1094B18689A889B7908608A8062
:1042C0008B7100207047054B0868B1F804C08A79EB
:1042D00018600020A3F804C09A717047840000247D
:1042E0000020704710B5094CD4F89032D3F814323E
:1042F0000BB1012010BD0A460146204608F02CFAF9
:104300002046BDE8104008F039BA00BF189A0024D2
:1043100010B5094CD4F89032D3F814320BB1012007
:1043200010BD0A460146204608F016FA2046BDE8B0
:10433000104008F023BA00BFB49C0024014B186061
:10434000704700BF84D20024014B1860704700BF43
:1043500088D200244B4A036830B593428BB04FF0AB
:104360000004CDE90444CDE90644089404D0464A4B
:10437000934249D00BB030BD444D4FF4C052444835
:10438000D5F8E03043F00103C5F8E030D5F8E0306F
:1043900003F0010300930223009904A9CDE904234B
:1043A0000A23089302F04AFB4FF40072002304A989
:1043B00037480694CDE9042302F040FBD5F8D83005
:1043C0002246214643F000636220C5F8D830D5F874
:1043D000D83003F000630193019B01F0B3FA62202F
:1043E00001F0EEFA22462146632001F0ABFA632089
:1043F00001F0E6FA22462146652001F0A3FA652085
:1044000001F0DEFA0BB030BD204D4FF4404204A95C
:10441000D5F8E03043F00203C5F8E030D5F8E030DD
:1044200003F002030293022302981A48CDE9042301
:104430000C23089302F002FBD5F8D830224621461F
:104440004A2043F00073C5F8D830D5F8D83003F0CF
:1044500000730393039B01F075FA4A2001F0B0FA50
:10446000224621464B2001F06DFA4B2001F0A8FABC
:10447000224621464D2001F065FA4D2001F0A0FAB8
:104480000BB030BD0000084000000440004402585A
:10449000000002580004025800F57171D0F80404BD
:1044A00008F0F2B9C1EBC10300EB8303D0F80404B8
:1044B000D3F8082208F016BAC1EBC10300EB83035E
:1044C000D0F804049A6C08F04BBA00BFD0F804048A
:1044D00008F0EABAC16810B5044619B1022900D043
:1044E000FEE70121D4F8040408F0C8FAD4F8040463
:1044F000BDE8104008F09ABA10B50446D0F804049C
:1045000008F0C0FA2268D2F8003E43F00103C2F876
:10451000003E236A23B1034A136943F00603136183
:1045200010BD00BF00ED00E0D0F8040408F0B4BAFC
:10453000D0F8040408F0C8BAD0F8040408F0C2BAED
:10454000D0F8040408F0C2BAD0F8040408F0C0BAE5
:1045500070B5067804461EB1012E30D0002070BD23
:10456000304D0923304AC5F80404C0F89852284653
:104570002E612E63C5E9002302230222EB60002393
:10458000C5E9062300220023C5E9082301220123EF
:10459000C5E90A2303F05AFB00B1FEE78021284653
:1045A00004F0E8F831464022284604F0B9F88022A9
:1045B0000121284604F0B4F82678012ECED11B4DF7
:1045C00009221B4B00216A6002222B600223C5F8DE
:1045D00004442846EB600023C4F898522961C5E9D9
:1045E000062300220023C5E90823C5E90C23012284
:1045F0000023C5E90A2303F029FB044600B1FEE7C6
:104600004FF40071284604F0B5F821468022284670
:1046100004F086F84FF4BA723146284604F080F868
:104620009CE700BF90D200240000084098D60024E8
:1046300000000440D0F8980208B503F09DFB032861
:1046400002D8024B185C08BD022008BD4440010896
:104650009446D0F898021A4608B5634603F012FF54
:10466000032802D8024B185C08BD022008BD00BF19
:1046700044400108D0F8980208B503F041FF032830
:1046800002D8024B185C08BD022008BD4440010856
:10469000D0F8980208B503F0C3FF032802D8024BF4
:1046A000185C08BD022008BD44400108D0F89802FB
:1046B00008B503F0F9FF032802D8024B185C08BDC7
:1046C000022008BD444001080A06D0F8983206D4FA
:1046D000C1EBC10103EB810191F8FE01704701F0CC
:1046E0007F01C1EBC10103EB810191F83E007047EE
:1046F000D0F8980208B503F0AFFE032802D8024BA9
:10470000185C08BD022008BD44400108D0F898029A
:1047100008B503F05DFF032802D8024B185C08BD02
:10472000022008BD44400108D0F8980208B503F003
:104730001DFF032802D8024B185C08BD022008BDEB
:1047400044400108D0F8980203F038BF1223014812
:104750000B807047D8000024122301480B8070475B
:10476000C4000024042301480B807047EC0000249F
:1047700010B5044C0A460448214608F029FC20469E
:1047800010BD00BFA0DA00244840010810B5044C59
:104790000A460448214608F01BFC204610BD00BF15
:1047A000A0DA00245840010810B5044C0A46044819
:1047B000214608F00DFC204610BD00BFA0DA002401
:1047C0006C40010810B5044C0A460448214608F024
:1047D000FFFB204610BD00BFA0DA0024784001088E
:1047E00010B5044C0A460448214608F0F1FB204667
:1047F00010BD00BFA0DA002488400108042301484E
:104800000B807047EC00002410B5044C0A460448A5
:10481000214608F0DDFB204610BD00BFA0DA0024D1
:1048200048400108464A4FF01A0CD2F80008D2F866
:104830000838A1F800C0C31801D142487047180FCA
:10484000B3F1204FD2F804184FF0000C3D4A2CBFB2
:104850003730303082F803C04FF0000C9070C3F353
:10486000036082F805C04FF0000C092882F807C0E9
:104870004FF0000C8CBF3730303082F809C04FF059
:10488000000C1071C3F3035082F80BC04FF0000C02
:10489000092882F80DC08CBF373030309071C3F3D7
:1048A000034009288CBF373030301072C3F3033017
:1048B00009288CBF373030309072C3F303200928A9
:1048C0008CBF373030301073C3F3031003F00F0385
:1048D00009288CBF37303030092B90734FF000001F
:1048E00094BF30333733B1F1204FD07313744FEA94
:1048F00011734FF000002CBF373330335074002059
:104900009374C1F30363D0740020092B50754FF0EA
:1049100000008CBF37333033D0751375C1F30353A8
:104920000848092B8CBF373330339375C1F30343E9
:10493000092B94BF303337331376002353767047F7
:1049400000E0F11FF0000024464A4FF01A0CD2F8A4
:104950000008D2F80838A1F800C0C31801D14248B5
:104960007047180FB3F1204FD2F804184FF0000C25
:104970003D4A2CBF3730303082F803C04FF0000C76
:104980009070C3F3036082F805C04FF0000C092853
:1049900082F807C04FF0000C8CBF3730303082F8FF
:1049A00009C04FF0000C1071C3F3035082F80BC024
:1049B0004FF0000C092882F80DC08CBF3730303022
:1049C0009071C3F3034009288CBF37303030107228
:1049D000C3F3033009288CBF373030309072C3F3F3
:1049E000032009288CBF373030301073C3F3031015
:1049F00003F00F0309288CBF37303030092B907338
:104A00004FF0000094BF30333733B1F1204FD073F3
:104A100013744FEA11734FF000002CBF373330335B
:104A2000507400209374C1F30363D0740020092BE9
:104A300050754FF000008CBF37333033D07513758D
:104A4000C1F303530848092B8CBF373330339375B8
:104A5000C1F30343092B94BF30333733137600235C
:104A60005376704700E0F11FF000002410B5044CAD
:104A70000A460448214608F0ABFA204610BD00BFA4
:104A8000A0DA00247840010810B5044C0A46044816
:104A9000214608F09DFA204610BD00BFA0DA002490
:104AA0006C400108D0F8C00208F004BBD0F8C00286
:104AB00008F018BBD0F8C00208F020BB704700BF58
:104AC000D0F8C00208F006BBD0F8C00208F006BB60
:104AD000D0F8D00308B502F083FD032802D8024BBA
:104AE000185C08BD022008BD9C400108024B0278FA
:104AF00053F82200704700BFC0400108024B4278C3
:104B000033F81200704700BFA04001088CB00A289B
:104B100014D8DFE800F01523313F4D5B69778593AA
:104B200006004D4BD3F8E02042F48062C3F8E02049
:104B3000D3F8E03003F480630B930B9B0CB0704709
:104B4000454BD3F8E02042F00102C3F8E020D3F84F
:104B5000E03003F001030193019BEFE73E4BD3F8F4
:104B6000E02042F00202C3F8E020D3F8E03003F086
:104B700002030293029BE1E7374BD3F8E02042F0B7
:104B80000402C3F8E020D3F8E03003F004030393F9
:104B9000039BD3E7304BD3F8E02042F00802C3F880
:104BA000E020D3F8E03003F008030493049BC5E74A
:104BB000294BD3F8E02042F01002C3F8E020D3F8EC
:104BC000E03003F010030593059BB7E7224BD3F8C1
:104BD000E02042F02002C3F8E020D3F8E03003F0F8
:104BE00020030693069BA9E71B4BD3F8E02042F075
:104BF0004002C3F8E020D3F8E03003F0400307930D
:104C0000079B9BE7144BD3F8E02042F08002C3F8E7
:104C1000E020D3F8E03003F080030893089B8DE791
:104C20000D4BD3F8E02042F48072C3F8E020D3F8B3
:104C3000E03003F480730993099B7FE7064BD3F8B8
:104C4000E02042F40072C3F8E020D3F8E03003F42F
:104C500000730A930A9B71E700440258704700BF33
:104C60000F4B1B780BB90120704710B504464FF469
:104C70007A700C4AB0FBF3F31068B0FBF3F000F06D
:104C8000C1FE0F2C00D808B1012010BD0022214622
:104C90004FF0FF3000F056FE034B00201C6010BDAB
:104CA0000A010024540000240C01002438B503201C
:104CB000124D00F035FE124C04F0F4FC114A12497A
:104CC0009369C3F30323CB5C03F01F0320FA03F3C0
:104CD0000E202B60926902F00F028A5C02F01F0224
:104CE000D3402360FFF7BCFF10B10124204638BD3C
:104CF0000446FFF7B3FF204638BD00BF5400002430
:104D0000580000240044025834400108034A044B70
:104D100011681B780B441360704700BF64DF0024E8
:104D20000A010024014B1868704700BF64DF0024AB
:104D300038B50446FFF7F6FF0546631C02D0044B66
:104D40001B781C44FFF7EEFF431BA342FAD338BD88
:104D50000A010024014B1868000C70470010005C29
:104D6000704700BF806B08B5FFF7FAFF08BD00BFB2
:104D7000836B5A6D12F0500F5A6D10B51DD1196822
:104D800042F400725A650A6812F0080FCA681BD014
:104D900012F4406F0DD1CA6894040AD45A6D22F4FB
:104DA00080725A655A6DD10403D45A6D42F00102E3
:104DB0005A651846FDF7A8FC10BDD2060AD4DB6C74
:104DC000BDE81040DB6C18479007E7D01846FDF7A8
:104DD0009BFCF1E71846FDF73BFD10BD806B08B565
:104DE000436D43F040034365836D43F004038365E3
:104DF000FDF72EFD08BD00BFF0B5002283B0019283
:104E000090F85020012A00F01C81034601201A6806
:104E100083F850009468640700F18A800C68C4F33A
:104E20001305002D40F08F80C4F38464A0404D68CA
:104E30004FF01F0ED6694FEA951C30430CF00C0C56
:104E4000D06105F01F0002F1300584400EFA00FE2B
:104E50005CF8050020EA0E0004434CF80540906819
:104E600040076ED4956815F0080547D10C680720F7
:104E700002F11406B94F4FEAD45CC4F304540CF0A9
:104E8000040C00FA04FE886800FA04F45CF80600DA
:104E900020EA0E0020434CF80600386800F070400D
:104EA000B0F1805F00F0C580D068D668C70600F119
:104EB000E880C6F382064869760000FA06F60F69B4
:104EC000042F00F0C18002F16004086854F827C084
:104ED00000F0F8400CF0004C40EA0C00304344F87D
:104EE0002700487E0E69012854F8260008BF4FF0BD
:104EF000004520F00040054344F826509068C40760
:104F000014D4CE68086806F01807954CD2F8C05043
:104F1000FC40C0F31307044025EA07052C43C2F800
:104F2000C040904CA64246D0002816DB002003E08B
:104F30005A6D42F020025A65002283F8502003B0D7
:104F4000F0BD9068DAE794FAA4F5B5FA85F5C4F3F4
:104F5000846405F01F05A84069E783498A4200F090
:104F6000B68001F580718A4200F0B1807F4D804C9F
:104F7000A968A46801F0E076E44304F00104002C81
:104F800000F0B4807B4CA04200F0FC807A4CA04240
:104F900000F01A81794CA042C8D14902C6D47449A4
:104FA0008A42C3D1AA68002022F0E072324342F460
:104FB0008002AA60C0E7002F6AD090FAA0F4B4FA89
:104FC00084F4013404F01F04092C00F2A48090FA48
:104FD000A0F4B4FA84F490FAA0F5B5FA85F501349A
:104FE00001260135A40605F01F0504F0F84406FA71
:104FF00005F52C4390FAA0F0B0FA80F0304400F0B0
:105000001F0000EB400000052043C60D02F114050F
:10501000C0F30450072406F0040604FA00F774599C
:1050200024EA07048F6807FA00F0204370510868EB
:105030007AE7D6684869C6F38206760000FA06F673
:105040003DE7022003B0F0BD106E0C6800F0F840A0
:10505000A506B0EB846F30D0506E00F0F84085426A
:1050600026D0906E00F0F84085422BD0D06E00F034
:10507000F84085427FF442AFD06E20F00040D06609
:105080003CE77608486906F0080600FA06F616E7D7
:10509000800E441C04F01F06092E2DD8A406012002
:1050A00004F0F844B040044306EB46000005ABE7CB
:1050B000506E20F000405066D3E7106E20F00040A4
:1050C0001066C9E7906E20F000409066CEE7264C4F
:1050D0002B4D04F58074A96854F8F86CA468344327
:1050E00001F0E076E44304F0010448E75A6D012042
:1050F00042F020025A651FE706EB4600A506012490
:105100001E3805F0F84504FA06F60005354340F070
:105110000070284379E790FAA0F5B5FA85F590FA82
:10512000A0F4B4FA84F4013501260134AD0604F08C
:105130001F0405F0F84506FA04F4254390FAA0F49C
:10514000B4FA84F4344404F01F0404EB4404A4F1DE
:105150001E00000540F00070DBE700BF0010005C9F
:10516000FFFF0F000000FF470020024000630258CD
:1051700000600258000084CB000052C70000B8CF86
:105180000023024008023FF5D1AE17498A427FF45E
:10519000CDAE164AA9681268154821F0E07192094F
:1051A0003143A0FB020241F400019209A9605200C0
:1051B0000192019A002A3FF4B9AE019A013A019294
:1051C000019A002AF9D1B1E611F080707FF4AEAEF9
:1051D00005498A427FF4AAAEAA6822F0E0723243FF
:1051E00042F08072AA60A7E60060025854000024D2
:1051F000632D3E0503689A68D20701D500207047E9
:105200009968214A114270B5044608D0636D0120A7
:1052100043F010036365A36D0343A36570BD9968F4
:105220001A4A0A4042F001029A60FFF77BFD2368A8
:10523000174A054693421ED002F5807293421AD057
:10524000144A9268114E0AE09A68324042F0010214
:105250009A60FFF767FD401B0228D7D823681A68B9
:10526000D2070FD49A68D107EED5FFF75BFD401B3C
:105270000228F3D9CAE7084A9268D006E2D0074A62
:105280009342DFD1002070BD3F000080C0FFFF7F50
:105290000020024000630258002302400021024027
:1052A0002DE9F0413A4D044600680F461646A842E3
:1052B00019D0384B984216D0374DAB6880684207FA
:1052C00016D494F85020012A12D003F01F080122AE
:1052D000B8F1090F84F850200DD90023012084F87B
:1052E0005030BDE8F0812D4DAB6880684207E8D5AD
:1052F0000220BDE8F08140F2212323FA08F3DB43CA
:1053000013EA0205E9D12046FFF774FF002839D1DE
:10531000626D234B2168134043F480736365B8F1D9
:10532000000F02D01B4B994203D0636D23F480130E
:105330006365636D13F4805328D0A36D23F00603D7
:10534000A365E06C3346174D3A464031C563164DB0
:105350000564164DC5641C2541F8405C002584F8A1
:10536000505051F83C5C45F0100541F83C5C00F0B1
:1053700059FE22680E4B91680B4043F00403936082
:10538000BDE8F08184F85050BDE8F081A365D8E70E
:105390000020024000210240006302580023024026
:1053A000FEF0FFFF714D0008654D0008DD4D00085F
:1053B000C0FFFF7F38B503689A68910702D59B68E4
:1053C000002038BD9A68D20723D59A68044602F0B7
:1053D0000D02012A08D0636D012043F010036365BC
:1053E000A36D0343A36538BD986803210A4A0240B0
:1053F00042F002029A601960FFF794FC054604E04F
:10540000FFF790FC401B0228E5D823689B68DB0768
:10541000F6D4002038BD00BFC0FFFF7F38B5574A23
:1054200004460368934226D002F58072934222D04C
:10543000534B9B6813F4403F22D004F0EDFA6368AD
:105440000546B3F5003F00F08880B3F5403F70D0CB
:10545000B3F5803F00F08180FFF77CFC41F203034D
:1054600098422DD8474B9D425DD92268936843F4FA
:105470008073936038BD444B9B6813F4403FDCD18C
:105480004FF4002005F094FB63680546B3F5101F48
:105490006DD008D8B3F5E01F55D01AD9B3F5001F69
:1054A000DAD14509D8E7B3F5201F4AD0B3F5301F4C
:1054B000D2D1FFF74FFC41F20303984233D92D0AB2
:1054C000324B9D421DD82268936823F44073936049
:1054D00038BDB3F5801F06D00AD9B3F5A01F02D09E
:1054E000B3F5C01FB8D19B0C5B00B5FBF3F5B3E778
:1054F000B3F5002FF7D023F40022B2F5802FF2D0BD
:10550000AAE7234B234A2B4493421ED9224B234A1A
:105510002B449342226893682BD823F4407343F4BE
:105520000073936038BD2268936823F4807393609E
:1055300038BD8508FFF70EFC41F203039842BFD83F
:1055400090E7C50988E7050986E72268936823F490
:10555000407343F48073936038BD1B0CB5FBF3F5C7
:10556000FFF7F8FB41F203039842A9D87AE78509CF
:1055700072E743F44073936038BD00BF00200240DF
:1055800000630258002D310100230240105E5F00CD
:10559000EFA1A0FF0F5E5F00DF4341FF1FBCBE0015
:1055A00030B5002383B00193002800F0D080456D12
:1055B0000446002D00F0BA80226893689B0003D552
:1055C0009168714B0B4093609368DD0015D46F4B6D
:1055D00090686F491B6801406E489B0941F08051FB
:1055E000A0FB030391609B090193019B2BB1019BDD
:1055F000013B0193019B002BF9D19368D80024D47F
:10560000636D012543F010036365A36D2B43A36510
:10561000936813F0040F636D1DD1D9061BD4636D1D
:1056200023F4817343F0020363659368DB0728D496
:10563000594B9A4217D003F580739A4213D0574BB7
:105640009B68D9071DD4564A15E09368002513F0CE
:10565000040F636DE1D0636D012543F0100328460C
:10566000636503B030BD4C4A4E4B92689B68134350
:10567000D80706D44C4A9368616823F47C130B4323
:105680009360FFF767FB41F20303A1689842237F11
:1056900052D894F815C01A04206B42EA4C320243E7
:1056A0000A43012B03D1236A013B42EA4342636A66
:1056B00023B103F47873A16A0B431A4323683B496F
:1056C000D86801400A43DA609A6812F0040F9A68B9
:1056D0001CD112071AD4D868354A217D024042EA0B
:1056E0008132E16A0A43DA6094F83820012A3AD01C
:1056F0001A6922F001021A611A692046616B22F0D0
:1057000070420A431A61FFF789FE2368E268012AA2
:1057100021D01A6B22F00F021A63636D284623F022
:10572000030343F00103636503B030BDFCF79AFF48
:10573000A56584F850503FE71029AAD1617D1A046D
:1057400042EA4132216B0A4342F01C02A9E70125DB
:10575000284603B030BD196BA26921F00F01013A50
:105760000A431A63D9E7D4E9102118690A43114999
:1057700001400A43A16C0A43E16B42EA014242F054
:1057800001021A61B8E700BFC0FFFF5F54000024A8
:10579000C0FFFF6F632D3E050020024000600258ED
:1057A00000630258002102400023024003C0F0FFC2
:1057B000FCBFFFFF1EF800FCF0B5002383B001938F
:1057C00090F85030012B40D0012304460E46154678
:1057D00080F85030FFF7EEFDE8B9676D05F08042C4
:1057E0001B4B06F480311B4D3B401B4F43F0020323
:1057F000636523689E68354015430D4345F00045B9
:105800009D609A68002A0FDB636D23F0030343F069
:105810000103636503E0636D43F0100363650023D8
:1058200084F8503003B0F0BD019A01320192019A20
:10583000BA42E6D9636D0022012023F0120384F8F6
:10584000502043F010036365ECE7022003B0F0BD85
:10585000FDEEFFFFC0FFFE3FFF955A55F0B490F8F4
:1058600050200E68012A49D00346294A01201C68AD
:1058700083F85000944208D05A6D002142F0200273
:1058800083F850105A65F0BC7047224DAA68520741
:105890000AD5A2685A6D012042F020025A65002202
:1058A00083F85020F0BC7047A06810F00400F1D1DC
:1058B000C6B1DFF868C04F68DCF8082022F4404227
:1058C0003A43CCF80820A468AA682243D40713D42A
:1058D0008A68DCF8081016430F4A0A401643CCF8D1
:1058E0000860DCE70D498A6822F440428A60A068BB
:1058F000AA680243D00704D50020D0E70220F0BCFC
:1059000070478C683046044A22408A60C7E700BF6F
:105910000020024000210240E0F0FFFF002302408F
:1059200006494FF6FF0C0002054BCA6800F4E06020
:1059300002EA0C0210430343CB60704700ED00E025
:105940000000FA051B4BDB68C3F3022300B5C3F16B
:10595000070E03F1040CBEF1040F28BF4FF0040E34
:10596000BCF1060F1AD9033B4FF0FF3C0CFA03FCC5
:1059700022EA0C024FF0FF3C00280CFA0EFC21EA50
:105980000C0101FA03F141EA02010ADB09010A4BA9
:10599000C9B2034483F800135DF804FB00221346E8
:1059A000E8E700F00F000901044BC9B2034419767F
:1059B0005DF804FB00ED00E000E100E0FCEC00E03D
:1059C000002807DB00F01F0101234009024A8B4039
:1059D00042F82030704700BF00E100E000280DDBF6
:1059E0004309012200F01F000549203302FA00F0AC
:1059F00041F82300BFF34F8FBFF36F8F704700BF95
:105A000000E100E0431EB3F1807F0CD24FF0E022B2
:105A1000002006494FF0F00C5361072381F823C0A2
:105A20009061136170470120704700BF00ED00E0F6
:105A3000BFF35F8F044B00215A6A22F480325A620E
:105A4000C3F89410704700BF00ED00E0064B40F033
:105A50000100C3F894005A6A42F480325A62BFF3DC
:105A60004F8FBFF36F8F704700ED00E0174A437808
:105A7000C2F89830017821B3436800B5C2F89C3071
:105A8000C37A90F80CC01B0690F80FE043EA0C7341
:105A900090F80AC00B43817B43EACC4390F80DC0D9
:105AA00043EA8C4390F809C043EA4143017A43EA50
:105AB0000E4343EA0C2343EA4103C2F8A0305DF8E9
:105AC00004FBC2F89C10C2F8A010704700ED00E083
:105AD000704700BF08B5FFF7FBFF08BD0268344BF5
